:020000040810E2
:1000000000800410790B10088D0A10088F0A100860
:10001000910A1008930A1008950A100800000000C1
:10002000000000000000000000000000970A100817
:10003000990A1008000000009B0A10089D0A100889
:10004000C90B1008C90B1008C90B1008C90B100800
:10005000C90B1008C90B1008C90B1008C90B1008F0
:10006000C90B1008C90B1008C90B1008C90B1008E0
:10007000C90B1008C90B1008C90B1008C90B1008D0
:10008000C90B1008C90B1008C90B1008C90B1008C0
:10009000C90B1008C90B1008C90B1008C90B1008B0
:1000A000C90B1008C90B1008C90B1008C90B1008A0
:1000B000C90B1008C90B1008C90B1008C90B100890
:1000C000C90B1008C90B1008C90B1008C90B100880
:1000D000C90B1008C90B1008C90B1008C90B100870
:1000E000C90B1008C90B100800000000C90B10084C
:1000F000C90B1008C90B1008C90B1008C90B100850
:10010000C90B1008C90B1008C90B1008C90B10083F
:10011000C90B1008C90B1008C90B1008C90B10082F
:10012000C90B1008C90B1008C90B1008C90B10081F
:10013000C90B1008C90B1008C90B1008C90B10080F
:10014000C90B1008C90B10080000000000000000D7
:10015000C90B1008C90B1008C90B1008C90B1008EF
:10016000C90B1008C90B1008C90B1008C90B1008DF
:10017000C90B1008C90B1008C90B1008C90B1008CF
:10018000C90B1008C90B1008C90B1008C90B1008BF
:10019000C90B1008C90B1008C90B1008C90B1008AF
:1001A000C90B1008C90B1008C90B1008C90B10089F
:1001B000C90B1008C90B1008C90B1008C90B10088F
:1001C000C90B1008C90B1008C90B1008C90B10087F
:1001D000C90B1008C90B1008C90B1008C90B10086F
:1001E000C90B1008C90B1008C90B1008C90B10085F
:1001F000C90B1008C90B1008C90B1008C90B10084F
:10020000C90B1008C90B1008C90B1008C90B10083E
:10021000C90B1008C90B1008C90B1008C90B10082E
:10022000C90B1008C90B1008C90B1008000000000A
:10023000C90B1008C90B1008C90B1008C90B10080E
:10024000C90B1008C90B1008C90B1008C90B1008FE
:10025000C90B1008C90B1008C90B1008C90B1008EE
:10026000C90B1008C90B1008C90B1008C90B1008DE
:10027000C90B1008C90B1008C90B1008C90B1008CE
:10028000C90B1008C90B1008C90B100800000000AA
:08029000C90B1008C90B10088E
:100298000348044B834202D0034B03B1184770470D
:1002A8009400001094000010000000000548064B60
:1002B8001B1AD90F01EBA301491002D0034B03B15C
:1002C80018477047940000109400001000000000C8
:1002D80010B5064C237843B9FFF7DAFF044B13B186
:1002E8000448AFF300800123237010BD9400001070
:1002F800000000002415100808B5054B1BB105497E
:100308000548AFF30080BDE80840FFF7CFBF00BF46
:10031800000000009800001024151008744B1B6999
:1003280003F03803102B00F0DE80182B0FD00BB130
:10033800704870476E4B1B6813F0200F00F0D58093
:100348006B4B1B68C3F3C1036B48D840704710B4AC
:10035800674B9A6A02F003029C6AC4F30510D96AD3
:1003680001F001015B6BC3F3CC0301FB03F307EE60
:10037800903AF8EE677A14F47C7F00F09480012AB2
:1003880066D0022A00F09280E2B107EE100AF8EE79
:10039800476A9FED5A6A86EE267A554B1B6BC3F364
:1003A800080306EE903AF8EE666A9FED556A67EE26
:1003B800867A76EEA77AF7EE006A77EEA67A27EEC7
:1003C800277A61E04A4B1B6813F0200F23D0484975
:1003D8000A68C2F3C102484BD34007EE103AF8EE60
:1003E800476A07EE100AB8EE476A86EE867A0B6B04
:1003F800C3F3080306EE903AF8EE666A9FED406A8A
:1004080067EE867A76EEA77AF7EE006A77EEA67A36
:1004180027EE277A38E007EE100AF8EE476A9FEDD4
:10042800396A86EE267A324B1B6BC3F3080306EE55
:10043800903AF8EE666A9FED326A67EE867A76EE53
:10044800A77AF7EE006A77EEA67A27EE277A1BE0FE
:1004580007EE100AF8EE476A9FED286A86EE267ABC
:10046800234B1B6BC3F3080306EE903AF8EE666A5B
:100478009FED236A67EE867A76EEA77AF7EE006A32
:1004880077EEA67A27EE277A194B1B6BC3F3462320
:10049800013307EE903AF8EE677AC7EE276AFCEE6A
:1004A800E67A17EE900A5DF8044B704707EE100ADB
:1004B800F8EE476A9FED146A86EE267A0C4B1B6BA2
:1004C800C3F3080306EE903AF8EE666A9FED0C6AED
:1004D80067EE867A76EEA77AF7EE006A77EEA67A66
:1004E80027EE277AD0E7094870470348704700BFCE
:1004F8000044025800093D000090D0030024744ACB
:10050800000000390024744C0024F44A00127A00D8
:100518000AB181617047090481617047024A136911
:1005280003431361704700BF0065025838B50D4694
:10053800284C236823F00103034323605AB1012A9E
:1005480025D000F0BDF803283ED0224A536923F095
:100558000403536138BD00F0B3F80328FAD12369C6
:1005680023F0010323611C4A136943F00403136158
:10057800BFF34F8FBFF36F8F012D06D020BF164AF0
:10058800136923F004031361E4E730BFF7E700F0D1
:1005980097F80128DED10F4A536923F0020353610B
:1005A8000D4A136943F004031361BFF34F8FBFF380
:1005B8006F8F012D06D020BF074A136923F004036B
:1005C8001361C7E730BFF7E7024A136923F0040352
:1005D8001361BFE70048025800ED00E008B500F0DD
:1005E8006FF8032802D040BF20BF08BD20BFFCE73A
:1005F800002804DB0901C9B2044B1954704700F004
:100608000F000901C9B2024B1954704700E400E019
:1006180014ED00E000B500F00700C0F1070CBCF1D4
:10062800040F28BF4FF0040C031D062B0FD9C31E5F
:100638004FF0FF3E0EFA0CF021EA000199400EFA45
:1006480003FE22EA0E0241EA02005DF804FB0023E1
:10065800EEE700000649CB6823F4E0631B041B0C9B
:10066800000200F4E0600343024A1A43CA6070477C
:1006780000ED00E00000FA0510B50446054BD86807
:10068800C0F30220FFF7C6FF01462046FFF7B0FF80
:1006980010BD00BF00ED00E00138B0F1807F0BD243
:1006A8004FF0E0235861054AF02182F8231000201A
:1006B800986107221A6170470120704700ED00E039
:1006C800044B1B68C3F30313072B01D001207047A9
:1006D8000320704700ED00E0104B1B780BB9012098
:1006E800704710B504464FF47A70B0FBF3F30C4A28
:1006F8001068B0FBF3F0FFF7CFFF68B90F2C01D9F2
:1007080001200AE0002221464FF0FF30FFF7B4FF36
:10071800044B1C60002000E0012010BD0000001008
:100728000C0000100400001010B582B01F4CD4F863
:10073800D83043F48043C4F8D830D4F8D83003F420
:1007480080430193019B1A4AD2F80014194B0B40BD
:1007580043F40143C2F80034D2F8003443F00103F3
:10076800C2F800340320FFF775FFFFF7D7FDA36930
:10077800C3F30323104AD35C03F01F03D840A369D3
:1007880003F00F03D35C03F01F03D8400B4B186032
:100798000B4B18600020FFF79FFF18B1012420467B
:1007A80002B010BD044600F079F9F8E70044025899
:1007B80000400240FF00F0FF3C1510080800001040
:1007C8000C000010034B1B78034A11680B4413609C
:1007D800704700BF00000010B0000010014B1868FF
:1007E800704700BFB000001038B50446FFF7F6FFA9
:1007F8000546B4F1FF3F02D0044B1B781C44FFF7B9
:10080800EDFF401BA042FAD338BD00BF0000001026
:10081800026852E8003F23F4907342E8003100294F
:10082800F6D1026802F1080353E8001F0D4B0B4094
:10083800083242E800310029F3D1C36E012B06D0FB
:100848002023C0F88C300023C366436770470268D2
:1008580052E8003F23F0100342E800310029F6D1A6
:10086800EEE700BFFEFFFFEF2DE9F84305460F4610
:1008780016469946DDF820802B68DC6937EA0404BF
:100888000CBF01240024B44232D1B8F1FF3FF3D0A9
:10089800FFF7A4FFA0EB090040452CD8B8F1000FE2
:1008A8002BD02B681A6812F0040FE5D0DA6912F021
:1008B800080F11D1DA6912F4006FDDD04FF400622D
:1008C8001A622846FFF7A4FF2023C5F890300023BA
:1008D80085F8843003200CE008241C622846FFF7C2
:1008E80097FFC5F89040002385F88430012000E088
:1008F8000020BDE8F8830320FBE70320F9E72DE992
:10090800F04182B01E46D0F88830202B5BD10446D7
:100918000D469046002A18BF002901D1012053E056
:100928000023C0F890302123C0F88830FFF756FF25
:100938000746A4F85480A4F85680A368B3F5805FEE
:1009480002D04FF0000816E0236943B34FF00008C7
:1009580011E02023C4F88830032035E038F8023B42
:100968002268C3F308039362B4F8562092B2013A9E
:1009780092B2A4F85620B4F856309BB293B10096C0
:100988003B46002280212046FFF76EFF0028E0D179
:10099800002DE3D015F8012B23689A62E4E7A846F6
:1009A8000025E8E700963B46002240212046FFF755
:1009B8005BFF18B92023C4F8883005E02023C4F869
:1009C8008830032000E0022002B0BDE8F08100007A
:1009D800054BD3F8882042F47002C3F888201A69BE
:1009E80042F010021A61704700ED00E008B50346B6
:1009F8000E4A126872B10D4A10684FF0E022D2F820
:100A0800082D1268A2F500520344934206D8074AFB
:100A1800136008BD054A06491160ECE700F018FBB1
:100A28000C2303604FF0FF30F3E700BFB400001061
:100A38000802001010B5144642F2107392B2024830
:100A4800FFF75DFF204610BD000000244FF0FF3087
:100A580070474FF400534B600020704701207047E7
:100A68000020704770B50C461646002506E0AFF327
:100A78000080214601F8010B01350C46B542F6DB32
:100A8800304670BDFEE7FEE7FEE7FEE7FEE770478B
:100A98007047704708B5FFF795FE08BD82B0074B51
:100AA800D3F8F42042F00202C3F8F420D3F8F4306B
:100AB80003F002030193019B02B0704700440258FF
:100AC8007047000010B582B0244BD3F8E02042F004
:100AD8000072C3F8E020D3F8E03003F0007301930C
:100AE800019B0120FFF71AFDFFF778FD0122022183
:100AF8000020FFF71BFD1A4B1B68C3F30313072BDA
:100B080023D0184AD2F8143143F00103C2F8143143
:100B1800FFF70AFEFFF7D4FF40F6B830FFF764FE90
:100B2800114800F067F9114C012202212046FFF715
:100B3800EFFC3220FFF758FE002202212046FFF783
:100B4800E7FCC820FFF750FEEDE7064AD2F804316B
:100B580043F00103C2F80431DAE700BF0044025849
:100B680000ED00E0006402584C151008001002580F
:100B7800DFF834D0FFF72CFF0C480D490D4A00234D
:100B880002E0D458C4500433C4188C42F9D30A4A3A
:100B98000A4C002301E013600432A242FBD300F0A8
:100BA8005DFAFFF78FFF7047008004100000001007
:100BB8009400001060151008940000100402001042
:100BC800FEE70000002310B50446C0E90033C0E981
:100BD8000433836081814366C28183611946082298
:100BE8005C3000F0E7F90D4B63620D4BA3620D4BCF
:100BF800E3620D4B23630D4B24629C4206D003F144
:100C08006802944202D0D0339C4205D104F15800C6
:100C1800BDE8104000F046BA10BD00BF0D0E100828
:100C28002F0E1008670E10088B0E1008B800001061
:100C3800024A0349034800F069B800BF38000010B1
:100C4800AD1310084800001041680C4B994210B5CC
:100C5800044601D000F0A6FBA168094B994202D0D6
:100C6800204600F09FFBE168064B994204D02046DD
:100C7800BDE8104000F096BB10BD00BFB8000010E2
:100C8800200100108801001010B50B4B0B4C0C4ACA
:100C98001A60204600220421FFF794FF04F168003F
:100CA80001220921FFF78EFF04F1D0000222BDE8DE
:100CB80010401221FFF786BFF0010010B8000010A5
:100CC800390C1008014800F0EEB900BFF901001016
:100CD800014800F0E9B900BFF901001010B5044659
:100CE800FFF7F0FF236A1BB1BDE81040FFF7F0BF24
:100CF800044B2362044B1B68002BF5D1FFF7C4FF9C
:100D0800F2E700BF510C1008F00100102DE9F8437C
:100D18000746884614460026D4E90195B9F1010929
:100D280005D52468002CF7D13046BDE8F883AB8997
:100D3800012B07D9B5F90E30013303D029463846BF
:100D4800C04706436835E9E7036A70B58468054615
:100D58000E460BB9FFF7C2FF636EDB0705D4A38904
:100D6800980502D4A06D00F09EF9A389190702D551
:100D78002369002B35D12146284600F0C5F880B3F9
:100D88004FF0FF35636EDA0705D4A3899B0502D4BB
:100D9800A06D00F089F9284670BD002B15DB23688B
:100DA8005A1C22601970A36816F8011F013BA36042
:100DB8000029F2D1002B16DA22460A21284600F033
:100DC80064F80130DCD00A25DCE7A2699A4201DC2C
:100DD8000A29E4D12246284600F057F80130E2D12A
:100DE800CEE7013EDFE723685A1C22600A221A7008
:100DF800E9E70000024B01461868FFF7A5BF00BFEE
:100E08004400001010B50C46B1F90E1000F0FCF8C3
:100E18000028ABBF636DA3891B1823F48053ACBFB4
:100E28006365A38110BD2DE9F0411F468B89DB0561
:100E380005460C46164605D5B1F90E1002230022C8
:100E480000F0D0F8A389B4F90E1023F48053A381DD
:100E580032463B462846BDE8F04100F0E7B810B5F9
:100E68000C46B1F90E1000F0BDF8431CA38915BF5C
:100E7800606523F4805343F48053A38118BFA38192
:100E880010BDB1F90E1000F09DB8F8B50E46144625
:100E9800054618B1036A0BB9FFF720FFA369A360E1
:100EA800A3891A0701D5236943B92146284600F0CA
:100EB8002BF818B14FF0FF373846F8BD2368226980
:100EC800981A6369F6B28342374605DC21462846FC
:100ED80000F068FA0028EDD1A368013BA3602368FD
:100EE8005A1C22601E706269431C9A4204D0A3896E
:100EF800DB07E1D50A2EDFD12146284600F052FA59
:100F08000028D9D0D6E7000038B5294B054618681F
:100F18000C4618B1036A0BB9FFF7E0FEB4F90C30C0
:100F2800190722D4DA0607D409222A6043F04003BD
:100F3800A3814FF0FF3033E0580712D5616B41B100
:100F480004F14403994202D0284600F0AFF8002388
:100F58006363A38923F02403A381002363602369C7
:100F68002360A38943F00803A38123694BB9A389AC
:100F780003F42073B3F5007F03D02146284600F020
:100F88005FFAB4F90C3013F001020AD00022A26013
:100F980062695242A261226942B913F08000C5D148
:100FA80038BD990758BF6269A260F4E70020F7E7E7
:100FB8004400001002440346934200D1704703F8EE
:100FC800011BF9E738B5064D0023044608462B6097
:100FD800FFF73CFD431C02D12B6803B1236038BDE9
:100FE800F401001038B5074D0446084611460022A2
:100FF8002A601A46FFF734FD431C02D12B6803B15F
:10100800236038BDF401001038B5074D0446084682
:10101800114600222A601A46FFF724FD431C02D11C
:101028002B6803B1236038BDF401001038B5074DB3
:1010380004460846114600222A601A46FFF7FAFCC1
:10104800431C02D12B6803B1236038BDF4010010A2
:10105800014B1868704700BF4400001070B50D4D73
:101068000D4C641BA4100026A64209D10B4D0C4C54
:1010780000F054FA641BA4100026A64205D170BDE6
:1010880055F8043B98470136EEE755F8043B984776
:101098000136F2E7581510085815100858151008A9
:1010A8005C151008704770477047000038B5054652
:1010B800002941D051F8043C0C1F002BB8BFE4189C
:1010C80000F0E0F81D4A136833B9636014602846DD
:1010D800BDE8384000F0DCB8A34208D920682118E0
:1010E8008B4201BF19685B6809182160EDE71A4651
:1010F8005B680BB1A342FAD911685018A0420BD112
:1011080020680144501883421160E0D118685B6878
:10111800536008441060DAE702D90C232B60D6E745
:10112800206821188B4204BF19685B68636004BF9C
:10113800091821605460CAE738BD00BF00020010DA
:1011480070B50F4E0C463168054611B900F0D6F956
:1011580030602146284600F0D1F9431C03D14FF0F6
:10116800FF34204670BDC41C24F00304A042F8D00C
:10117800211A284600F0C2F90130F2D1EFE700BF8A
:10118800FC0100102DE9F843CD1C25F003050835B6
:101198000C2D38BF0C25002D064601DBA94204D9C9
:1011A8000C2333600020BDE8F883DFF8D48000F01A
:1011B80069F8D8F800301C4644BB29463046FFF78A
:1011C800BFFF431C044658D1D8F800402746002FDB
:1011D80043D1002C4BD023683946304604EB030931
:1011E80000F08CF9814542D121686D1A29463046B4
:1011F800FFF7A6FF01303AD023682B442360D8F8C4
:1012080000305A6862BBC8F800700FE02268521BB1
:1012180020D40B2A17D96119A342256018BF596039
:10122800636808BFC8F8001062514B60304600F090
:101238002FF804F10B00231D20F00700C21A1CBF71
:101248001B1AA350AFE76268A3420CBFC8F800207E
:101258005A60EBE723466468AEE73C467F68B6E72A
:101268001A465B68A342FBD100235360DEE70C23D8
:101278003360304600F00CF894E70560D6E700BF0D
:10128800000200100148FFF70EBF00BFF801001070
:101298000148FFF709BF00BFF8010010B1F90C20A1
:1012A8002DE9F041170705460C4656D44B68002B2C
:1012B80002DC0B6C002B3DDDE66A002E3AD00023E1
:1012C80012F480522F68216A2B6025D0626DA389A1
:1012D800580705D56368D21A636B0BB1236CD21A11
:1012E800216AE66A00232846B047411C24D000231F
:1012F800636023692360A389DA0400D56065616BA4
:101308002F60B9B104F14403994202D02846FFF78F
:10131800CDFE002363630DE001232846B047461C39
:101328000246D4D12B68002BD1D01D2B01D0162B0F
:101338002BD12F6000202FE02A68B4F90C3042B17D
:101348001D2A01D0162A22D1002363602369236055
:10135800D5E7626022692260CEE70F69002FE9D0E5
:1013680093070E6808BF4B690F6018BF0023A6EBF0
:1013780007088B60B8F1000FDCDD216AA66A4346D6
:101388003A462846B047002808DCB4F90C3043F048
:101398004003A3814FF0FF30BDE8F0810744A8EB7C
:1013A8000008E7E738B50B6905460C4613B9002570
:1013B800284638BD18B1036A0BB9FFF78FFCB4F99A
:1013C8000C30002BF3D0626ED00704D4990502D4F8
:1013D800A06DFFF768FE28462146FFF75FFF636EA2
:1013E800DA070546E4D4A3899B05E1D4A06DFFF78D
:1013F8005BFEDDE770B50C46B1F90E10002996B01A
:1014080015461E460DDAA38913F0800F4FF0000130
:1014180014BF40234FF48063002031602B6016B066
:1014280070BD6A4600F048F80028ECDB019901F429
:101438007041A1F50053594259414FF48063EBE7DD
:101448008B89F7B59D0706460C4607D504F1470377
:10145800236023610123636103B0F0BD01AB6A46D9
:10146800FFF7C8FF009F054639463046FFF78AFE5A
:1014780048B9B4F90C309A05EED423F0030343F0CD
:101488000203A381E2E7A389206043F08003A381DC
:10149800019BC4E904075BB1B4F90E10304600F0B3
:1014A8001DF828B1A38923F0030343F00103A381A6
:1014B800A3891D43A581CFE738B5074D002304460E
:1014C800084611462B60FFF7C4FA431C02D12B686B
:1014D80003B1236038BD00BFF401001038B5064DD4
:1014E8000023044608462B60FFF7B8FA431C02D1D4
:1014F8002B6803B1236038BDF401001038B5064DE0
:101508000023044608462B60FFF770FA431C02D1FB
:101518002B6803B1236038BDF4010010F8B500BF93
:10152800F8BC08BC9E467047F8B500BFF8BC08BCBC
:041538009E46704714
:10153C00000000000102030401020304060708096D
:0C154C00434D342072656164790D00008D
:041558000103100873
:04155C00D902100898
:1015600001000000100000000090D0030090D003A4
:1015700030EF00E090ED00E0F0ED00E0000004E06E
:10158000001000E0000000E000E100E010E000E0FA
:1015900000ED00E000E000E00000000003000000BB
:1015A000B80000104800001000000000B800001053
:1015B0002001001088010010000000000000000061
:1015C000000000000000000000000000000000001B
:1015D000000000000000000000000000000000000B
:1015E00000000000000000000000000000000000FB
:0415F00000000000F7
:020000042400D6
:1000000000000000000000000000000000000000F0
:1000100000000000000000000000000000000000E0
:1000200000000000000000000000000000000000D0
:1000300000000000000000000000000000000000C0
:1000400000000000000000000000000000000000B0
:1000500000000000000000000000000000000000A0
:100060000000000000000000000000000000000090
:100070000000000000000000000000000000000080
:100080000000000000000000000000000000000070
:08009000000000000000000068
:0400000508100B795B
:00000001FF
