:020000040800F2
:10000000000002207D950008AD8A0008B18A000832
:10001000C58A0008C78A0008C98A000800000000D5
:10002000000000000000000000000000CB8A000873
:10003000CD8A000800000000D18A0008458B000826
:10004000CD950008CD950008CD950008CD95000808
:10005000CD950008CD950008CD950008CD950008F8
:10006000CD950008CD950008CD950008CD950008E8
:10007000CD950008CD950008CD950008CD950008D8
:10008000CD950008CD950008CD950008CD950008C8
:10009000CD950008CD950008CD950008CD950008B8
:1000A000CD950008CD950008CD950008CD950008A8
:1000B000CD950008CD950008CD950008CD95000898
:1000C000CD950008CD950008CD950008CD95000888
:1000D000CD950008CD950008CD950008CD95000878
:1000E000CD950008CD95000800000000CD950008D2
:1000F000CD950008CD950008CD950008CD95000858
:10010000CD950008CD950008CD950008CD95000847
:10011000CD950008CD950008CD950008CD95000837
:10012000CD950008CD950008CD950008CD95000827
:10013000CD950008CD950008CD950008CD95000817
:10014000CD950008CD9500080000000000000000DB
:10015000CD950008CD950008CD950008CD950008F7
:10016000CD950008CD950008CD950008CD950008E7
:10017000CD950008CD950008CD950008CD950008D7
:10018000CD950008CD950008CD950008CD950008C7
:10019000CD950008CD950008CD950008CD950008B7
:1001A000CD950008CD950008CD950008CD950008A7
:1001B0008D8B0008CD950008CD950008CD950008E1
:1001C000CD950008CD950008CD950008CD95000887
:1001D000CD9500089D8B0008CD950008CD950008B1
:1001E000CD950008CD950008CD950008CD95000867
:1001F000CD950008CD950008CD950008CD95000857
:10020000CD950008CD950008CD950008CD95000846
:10021000AD8B0008CD950008CD950008CD95000860
:10022000CD950008CD950008BD8B000800000000AA
:10023000CD950008CD950008CD950008CD95000816
:10024000CD950008CD950008CD950008CD95000806
:10025000CD950008CD950008CD950008CD950008F6
:10026000CD950008CD950008CD950008CD950008E6
:10027000CD950008CD950008CD950008CD950008D6
:10028000CD950008CD950008CD9500080000000030
:08029000CD950008CD95000892
:1002A00001F0FF01102A2BDB10F0070F08D010F827
:1002B000013B013A8B422DD010F0070F42B3F6D12B
:1002C000F0B441EA012141EA014122F007047FF044
:1002D00000070023F0E80256083C85EA010586EA9B
:1002E000010685FA47F5A3FA87F586FA47F6A5FAD7
:1002F00087F68EB9EED1F0BC01F0FF0102F00702E3
:1003000032B110F8013B013A83EA010313B1F8D18D
:100310000020704701387047002D06BF354603386E
:10032000073815F0010F07D1013015F4807F02BFA7
:10033000013015F4C03F0130F0BC0138704700BFF8
:10034000034613F8012B002AFBD1181A0138704715
:1003500053B94AB9002908BF00281CBF4FF0FF312C
:100360004FF0FF3000F00CB8ADF1080C6DE904CE91
:100370000BF0B6FEDDF804E0DDE9022304B07047BF
:10038000704700BF0348044B834202D0034B03B1C4
:1003900018477047100300201003002000000000E1
:1003A0000548064B1B1AD90F01EBA301491002D0D7
:1003B000034B03B1184770471003002010030020BF
:1003C0000000000010B5064C237843B9FFF7DAFFB0
:1003D000044B13B10448AFF300800123237010BD18
:1003E000D0030020000000009CC3000808B5054BA6
:1003F0001BB105490548AFF30080BDE80840FFF791
:10040000CFBF00BF00000000D40300209CC3000841
:1004100008B500221049114806F039FC80B910498E
:100420000E4806F04BFC70B90E490C4807F044FC2E
:1004300060B90A4806F05CFC58B904F0B5F808BD8C
:1004400008F038FFEBE708F035FFEDE708F032FF82
:10045000EFE708F02FFFF0E734000020EC03002066
:10046000B40000205400002012230B800048704785
:100470002000002004230B80004870471C0000204F
:10048000002393421ED200B510E00CF1370C01F8A6
:1004900013C000014FEA430C0CF1010C4FF0000EA9
:1004A00001F80CE00133DBB2934209D24FEA107C31
:1004B000B0F1204FE9D20CF1300C01F813C0E8E79D
:1004C0005DF804FB7047000038B50B4BD3F800080B
:1004D000D3F80448D3F80838C01800D138BD074D08
:1004E00008222946FFF7CCFF042205F1100120461F
:1004F000FFF7C6FFF2E700BF00E0F11F0200002097
:1005000008B51A230B80FFF7DFFF014808BD00BFC5
:100510000000002008B50A4628B90549054807F03B
:1005200049F9034808BD0249024807F043F9F8E7D2
:10053000C8060020CCC3000810B50A46034C21466B
:10054000034807F037F9204610BD00BFC806002059
:10055000E4C3000808B50A4628B90549054807F06C
:1005600029F9034808BD0249024807F023F9F8E7D2
:10057000C8060020F8C3000808B50A4628B905498E
:10058000054807F017F9034808BD0249024807F07B
:1005900011F9F8E7C806002004C4000800207047DD
:1005A000002070470020704710B50146044C2046DB
:1005B00007F09BFB204607F0A4FB002010BD00BF06
:1005C000EC03002010B5064C00220649204607F037
:1005D0007EFB0549204607F088FB002010BD00BFC8
:1005E000EC030020C8080020C810002030B5B9B0C6
:1005F0000446002133913491359136913791C022D0
:1006000002A809F04BFE2268284B9A4201D039B06B
:1006100030BD4FF480220023CDE9022301230C9347
:1006200018230D9302230E9304220F9210934FF47C
:10063000406311934FF40013249302A802F094FC3A
:1006400088BB03F0B1FF1A4CD4F8E03043F001034B
:10065000C4F8E030D4F8E03003F001030093009BCD
:100660004FF4C853339302233493002535953695C0
:100670000A23379333A90F4803F0CAFBD4F8D830C4
:1006800043F00063C4F8D830D4F8D83003F00063E6
:100690000193019B2A462946652003F0DFFF652070
:1006A00003F0ECFFB3E708F005FECAE700000840DE
:1006B000004402580000025808B500F2C441D0F8C6
:1006C000080506F02BFB08BD08B501EBC10300EBE4
:1006D0008303D3F88822D0F8080506F0F1FB08BDA3
:1006E00008B501EBC10300EB83039A6CD0F8080551
:1006F00006F049FC08BD08B5D0F8080506F08BFBEC
:1007000008BD10B5044603693BB1022B01D101219C
:1007100004E008F0CFFD012100E00021D4F8080535
:1007200006F05AFBD4F8080506F024FB10BD0000C3
:1007300010B50446D0F8080506F051FB2268D2F83F
:10074000003E43F00103C2F8003E236A23B1034A8E
:10075000136943F00603136110BD00BF00ED00E014
:1007600008B5D0F8080506F049FB08BD08B5D0F873
:10077000080506F078FB08BD08B5D0F8080506F0B6
:100780005BFB08BD08B5D0F8080506F083FB08BD83
:1007900008B5D0F8080506F07FFB08BD02780AB15D
:1007A0000020704710B503461548C0F80835C3F857
:1007B000C802144B03600923436002220261002334
:1007C000C3608261C361036243628362C362036385
:1007D00000F0F2F880B90A4C8021204600F0FDFEBE
:1007E00040220021204600F0D2FE80220121204636
:1007F00000F0CDFE002010BD08F05CFDEBE700BF6F
:10080000E81A002000000840D0F8C83211F0800F2C
:1008100008D101F07F0101EBC10103EB810393F8E3
:100820007E02704701F07F0101EBC10103EB810300
:1008300093F83E00704708B5D0F8C80200F0DDFA22
:1008400008BD000000487047C81800207047032802
:1008500005D8DFE800F005040205012070470320F9
:10086000704708B5D0F8C80200F044F9FFF7EFFF71
:1008700008BD08B594461A466346D0F8C80200F091
:1008800019FAFFF7E4FF08BD08B5D0F8C80200F078
:1008900056FAFFF7DCFF08BD08B5D0F8C80200F033
:1008A000DAFAFFF7D4FF08BD08B5D0F8C80200F0A7
:1008B00016FBFFF7CCFF08BD08B5D0F8C80200F062
:1008C000E5F9FFF7C4FF08BD08B5D0F8C80200F08D
:1008D0009DFAFFF7BCFF08BD08B5D0F8C80200F0CC
:1008E00067FAFFF7B4FF08BD2DE9F04383B0D0F8F5
:1008F000008001EBC10300EB83031A6DDB6C9A42AD
:1009000054D807460C469B1A01EBC10200EB820249
:10091000526C9A4200D31A4602F103094FEA990930
:1009200015E006F103094FEA990904EBC40507EB4A
:100930008505A96C3B7B0093B3B2E2B2404601F05F
:10094000A0F9AB6C3344AB642B6D33442B6508EBDF
:10095000441303F510639B699BB24B4512D304EB20
:10096000C40307EB83031A6DDB6C9A420AD24BB1C6
:100970009B1A04EBC40207EB8202566C9E42D0D352
:100980001E46CEE704EBC40307EB8307FA6C3B6D0E
:100990009A420FD804F00F040122A240D8F834384C
:1009A00023EA0203C8F83438002000E0012003B035
:1009B000BDE8F0830020FAE770B58AB0002800F0A7
:1009C00097800546046890F8BD343BB3032385F84F
:1009D000BD34E36B13F4807F01D10023EB60286802
:1009E00000F004FF2C4654F8106BEC460FCCACE83A
:1009F0000F000FCCACE80F0094E803008CE8030074
:100A00002B1D0ECB304600F02BFE044658B10223BE
:100A100085F8BD34012420460AB070BD80F8BC348E
:100A2000FFF7E4FDD2E70021286801F03CFB2346F4
:100A300016E003EBC30205EB8202012182F83D10B0
:100A400082F83C30A2F85630002182F84010516400
:100A5000916403EBC30205EB8202D1640133DBB284
:100A600069688B42E5D316E004EBC40305EB83030E
:100A7000002283F87D2283F87C4283F88022C3F829
:100A80008422C3F8882204EBC40305EB8303C3F874
:100A90008C220134E4B2A142E6D82C4654F8106B03
:100AA000EC460FCCACE80F000FCCACE80F0094E89C
:100AB00003008CE803002B1D0ECB304600F0F2FE45
:100AC000044660B9002385F83830012385F8BD3429
:100AD0006B6A012B08D0286801F0A4FA9BE7022377
:100AE00085F8BD34012496E7284600F07BFDF2E747
:100AF000012490E7036890F8BC24012A1AD010B5AD
:100B00000446012280F8BC24DA6B12F4807F02D103
:100B1000826A012A09D0206800F062FE206801F094
:100B200073FA002084F8BC0410BD9A6B42F4803242
:100B30009A63F0E70220704770B504460D460068DE
:100B4000066C00EB411303F530639A68E1680129F4
:100B500011D038498E4256D03DB905EBC50304EBA0
:100B60008303D3F88C32002B5ED0E9B22046FFF726
:100B7000ABFD002070BD12F0080F09D02E498E4247
:100B8000F7D912F4004FF4D04FF400429A60F0E726
:100B900012F0200F02D020229A60EAE712F0280F0C
:100BA000E7D125498E4206D912F4004F03D04FF405
:100BB00000429A60DDE705EBC50204EB8202D2F841
:100BC0009C121B69C3F31203CB1AC2F890327DB991
:100BD00005EBC50204EB8202D2F88C226AB105EB68
:100BE000C50204EB8202D2F888121944C2F88812B6
:100BF000E9B22046FFF768FDBBE704F2C4420121D9
:100C000001F092FAF4E712F4004F03D04FF40042DF
:100C10009A60AEE712F0200F01D020229A60E9B26C
:100C20002046FFF751FDA4E704F2C442002101F081
:100C30007BFA9AE70A31544F0A30544F38B50446CC
:100C400003681D6C03EB4113D3F8081B0E4A954251
:100C500007D903F5306311F4004F02D04FF400427E
:100C60009A602046FFF728FD074B9D4202D9E368B2
:100C7000012B01D0002038BD04F2C44201212068BC
:100C800001F052FAF6E700BF0A30544F90F8BC3436
:100C9000012B0DD010B50446012380F8BC3480F838
:100CA0003810006801F0A0F9002084F8BC0410BDE1
:100CB0000220704738B505468C4611F0800F29D1C7
:100CC00001F00F0E0EEBCE04A40004F51E740444D4
:100CD000211D0EEBCE0E00EB8E0E00208EF87D0255
:100CE0000CF00F0C81F800C08A600B714A780AB1D1
:100CF000A1F81AC0022B1DD095F8BC34012B1CD0D2
:100D0000012385F8BC34286800F0A0FE002085F897
:100D1000BC0438BD01F00F0000EBC0018900383180
:100D20002944043100EBC00005EB8000012480F869
:100D30003D40D5E700234B71DEE70220E9E710B51F
:100D400004460A4611F0800F20D101F00F0000EB9D
:100D5000C0039B0003F51E732344191D00EBC00064
:100D600004EB8000002380F87D3202F00F020A704D
:100D700094F8BC34012B19D0012384F8BC342068CA
:100D800000F0B0FE002084F8BC0410BD01F00F009C
:100D900000EBC0039B0038332344191D00EBC00057
:100DA00004EB8000012380F83D30DEE70220ECE711
:100DB00008B501F00F0C0CEBCC01890001F51E7198
:100DC000014404310CEBCC0E00EB8E0ECEF88822E1
:100DD000CEF88C320023CEF890328EF87D328EF829
:100DE0007CC2C368012B05D0DAB2006800F060FF56
:100DF000002008BDCEF89822F6E701F00F0101EBC4
:100E0000C10100EB8100D0F89002704708B501F0F5
:100E10000F0C0CEBCC0189003831014404310CEB90
:100E2000CC0E00EB8E0ECEF84820CEF84C300023CE
:100E3000CEF8503001238EF83D308EF83CC0C368A8
:100E4000012B05D0DAB2006800F032FF002008BDA7
:100E5000CEF85820F6E738B501F00F054268954204
:100E600039D804460B4611F0800F1FD101EBC101A8
:100E7000890001F51E710144043103EBC30300EB4B
:100E80008303002283F87D2201238B700D7094F878
:100E9000BC34012B21D0012384F8BC34206801F03C
:100EA00048F88DB1002084F8BC0438BD05EBC501BD
:100EB000890038310144043105EBC50300EB83039D
:100EC000012283F83D20DFE704F2C442217B206841
:100ED00001F02AF9E6E70120E7E70220E5E701F063
:100EE0000F034268934231D810B5044611F0800FC9
:100EF0001ED103EBC301890001F51E7101440431C9
:100F000003EBC30200EB8202002082F87D02002284
:100F10008A700B7094F8BC34012B19D0012384F82B
:100F2000BC34206801F032F8002084F8BC0410BD05
:100F300003EBC301890038310144043103EBC302E0
:100F400000EB8202012082F83D00E0E701207047BB
:100F50000220ECE708B511F0800F0CD101F00F0171
:100F600001EBC101890001F51E71014404310068E3
:100F700000F028FE08BD01F00F0101EBC10189005E
:100F8000383101440431F2E72DE9F04F83B00446D3
:100F90000568284601F083F810B103B0BDE8F08F72
:100FA0000646206801F04CF80028F6D005F50067E9
:100FB000BB68C3F30D23C4F8FC34206801F040F88B
:100FC00010F0020F04D02268536903F0020353614A
:100FD000206801F035F810F0100F14D022689369E2
:100FE00023F010039361D5F8208008F00F09C8F3AF
:100FF0004343022B69D0062B00F08D802268936951
:1010000043F010039361206801F01AF810F4002FE8
:1010100040F09380206801F013F810F4802F40F026
:10102000FC80206801F00CF80028C0F27F81206865
:1010300001F006F810F4006F09D0BB6813F0010F3F
:1010400040F08C812268536903F400635361206887
:1010500000F0F6FF10F0006F15D02268536903F01E
:101060000063536194F8F434002B40F07B8101213C
:1010700084F8F41423685B6DC3F38303C4F8F83475
:10108000204600F0C3FA206800F0DAFF10F4805F19
:1010900040F06C81206800F0D3FF10F4005F40F056
:1010A000B881206800F0CCFF10F0080F40F0C98133
:1010B000206800F0C5FF10F0800F00F0DC81AB6904
:1010C00023F08003AB610126C5E147F6F07318EA0F
:1010D000030F93D04FEA181A4FEAC903019309EBA3
:1010E000C90B04EB8B0BC8F30A12DBF888122846F5
:1010F00000F0FCFEDBF88832CAF30A0A5344CBF84E
:101100008832DBF89032019A4A4404EB820253445D
:10111000C2F8903272E7082204F2C441284600F077
:10112000E5FE09EBC90304EB8303D3F89022C8F36F
:101130000A184244C3F8902260E7206800F084FF58
:101140008046B14635E005EB49130122C3F8082B70
:1011500049462046FFF7F0FC3CE005EB4913082226
:10116000C3F8082B49462046FFF768FD35E009EB38
:10117000C90304EB830393F87F32012B41D005EBC5
:1011800049130222C3F8082B1AF0200F04D005EBF4
:1011900049132022C3F8082B1AF4005F05D005EB91
:1011A00049134FF40052C3F8082B09F101094FEA23
:1011B0005808B8F1000F3FF42DAF18F0010FF4D02C
:1011C0005FFA89FB5946206800F04EFF824610F016
:1011D000010FB8D11AF0080FBFD11AF0100F04D0C8
:1011E00005EB49131022C3F8082B1AF0020FCBD0DD
:1011F0006B6913F0800FBAD07B6843F480637B6027
:10120000B5E709EBC90304EB8303002283F87F22CF
:1012100059462046FFF7AAFAB1E7206800F01CFF04
:101220008046B14625E059462046FFF759FA1AF0A4
:10123000080F04D005EB49130822C3F808291AF057
:10124000100F04D005EB49131022C3F808291AF037
:10125000400F04D005EB49134022C3F808291AF0C7
:10126000020F40D11AF0800F5BD109F101094FEA5A
:101270005808B8F1000F3FF4D4AE18F0010FF4D0C5
:101280005FFA89FB5946206800F0F7FE824610F0AD
:10129000010FCCD009F00F02012101FA02F27B6BA1
:1012A00023EA02037B6305EB4913C3F80819E368DB
:1012B0008B42B8D109EBC90304EB83039A6C596CD8
:1012C0000A449A64B9F1000FADD109EBC90304EBEC
:1012D0008303DB6C002BA6D104F2C44201212068F9
:1012E00000F022FF9FE74946284600F085FA09EB07
:1012F000C90304EB830393F83F30012B05D005EBC2
:1013000049130222C3F80829ACE709EBC90304EB2F
:101310008303002283F83F2059462046FFF72CFA2A
:10132000EDE749462046FFF7DFFA9EE77B6823F0AA
:1013300001037B6094F8F434012B08D02046FFF7BA
:101340000FFA2268536903F0004353616FE60021EE
:1013500084F8F414204600F059F9F2E72046FFF72C
:10136000E7F96FE62046FFF7E3F98CE67B6823F0A8
:1013700001037B601021206800F03EFA1AE005EBC3
:1013800046134FF67F31C3F80819D3F8002922F429
:101390000012C3F80029C3F8081BD3F8002B22F46D
:1013A0000012C3F8002BD3F8002B42F00062C3F800
:1013B000002B01366368B342E1D8FB6943F00113A7
:1013C000FB61236BDBB1D7F8843043F00B03C7F824
:1013D00084307B6C43F00B037B64D5F8003823F436
:1013E000FE63C5F8003804F2C442217B206800F097
:1013F0009BFE2268536903F4805353614AE67A697D
:1014000042F22B0313437B613B6943F00B033B61C7
:10141000E3E7206800F078FE206800F007FB206119
:10142000266801F04FFC0146227C304600F066F948
:101430002046FFF766F92268536903F400535361AD
:101440002FE62046FFF757F92268536903F0080397
:1014500053612DE601366368B3420CD906EBC6032F
:1014600004EB830393F87F32012BF3D1F1B22046D2
:10147000FFF770FDEEE7206800F0E2FD10F4801F3A
:1014800027D1206800F0DCFD10F4001F5BD00123A1
:1014900028E001366368B3421DD905EB4613D3F843
:1014A000002906EBC60304EB830393F84030012BBD
:1014B000EFD1002AEDDA06EBC60304EB8303012229
:1014C00083F83F2066F07F01C9B22046FFF742FD56
:1014D000DFE70126DEE72268536903F480135361D6
:1014E000CFE7013362689A4228D905EB4312D2F85C
:1014F000001B03EBC30204EB820292F88022012A54
:10150000EFD10029EDDA01F48031D4F8FC2402F0A7
:1015100001029142E5D103EBC30204EB82020121F7
:1015200082F87F12AA6942F08002AA616A6912F009
:10153000800FD6D17B6843F400737B6022685369C7
:1015400003F400135361206800F07AFD10F0804F1F
:1015500010D1206800F074FD10F0040F3FF41DADB1
:1015600023685D6815F0040F0DD1226853682B4382
:10157000536012E52046FFF705F92268536903F02E
:1015800080435361E5E72046FFF702F9EDE710B429
:101590000468606A31B940EA0240A06200205DF848
:1015A000044B70478C46A36A00EB1340002308E00D
:1015B00003F1400104EB8101496800EB1140013364
:1015C000DBB20CF1FF318B42F2D340EA02400CF166
:1015D0003F0104EB81046060E0E70368596200208A
:1015E00070470000034602680121C0F80015002082
:1015F00083F8F404936943F000639361516D024BE7
:101600000B435365704700BF030000107047000094
:1016100082B000230193019B01330193019A0F4B88
:101620009A4215D80369002BF5DA00230193036968
:1016300043F001030361019B01330193019A074BBE
:101640009A4208D8036913F0010FF4D1002000E09A
:10165000032002B070470320FBE700BF400D0300EA
:1016600084B010B5044603A880E80E00089B012B47
:101670001DD1A36B23F48033A363E2681D4B134099
:10168000E360E36823F44013E3600F9B012B09D070
:101690002046FFF7BDFF059B012B1BD0BDE8104086
:1016A00004B07047E36843F48013E360F0E7E36855
:1016B00043F04003E3602046FFF7AAFF0C9B23B9E9
:1016C000A36B43F48033A363E5E7A36B23F4803378
:1016D000A363E0E7E36D9BB2E365E26D064B134362
:1016E000E365A36843F00603A360A36843F0200307
:1016F000A360D3E7BFFFBDFF0000EE03022A0AD0BC
:101700000922C36823F47053C360C36843EA822389
:10171000C36000207047204B0B44204A934229D9D4
:101720001F4B0B441F4A934226D91F4B0B441F4AA1
:10173000934223D91E4B0B441E4A934220D31E4B87
:101740000B441E4A93421DD91D4B0B441D4A934224
:101750001AD31D4B0B441D4A934217D31C4B0B4409
:101760001C4A934214D31C4B0B441C4A934211D283
:101770000722C6E70F22C4E70E22C2E70D22C0E708
:101780000C22BEE70B22BCE70A22BAE70922B8E71F
:101790000822B6E70622B4E7405327FFFF340C00C7
:1017A000401E1BFF3F420F0000DC0BFF7F4F12006B
:1017B000808CF9FE20D6130060B6E5FE5FE31600CC
:1017C00000D3CEFE40771B00C05BB3FEC09121006A
:1017D00000CA91FE20753800E05459FEE09C41009B
:1017E000836843F00103836000207047836823F01F
:1017F000010383600020704782B000230193019BA6
:1018000001330193019A0F4B9A4215D80369002BBB
:10181000F5DA00230193890141F020010161019B68
:1018200001330193019A074B9A4208D8036913F0D8
:10183000200FF4D1002000E0032002B07047032005
:10184000FBE700BF400D030082B000230193019B22
:1018500001330193019A0E4B9A4213D80369002B6E
:10186000F5DA0023019310230361019B01330193F7
:10187000019A074B9A4208D8036913F0100FF4D16C
:10188000002000E0032002B070470320FBE700BF08
:10189000400D0300D0F800381943C0F800180020AC
:1018A0007047000084B02DE9F041044607A880E8A5
:1018B0000E00002306E003F1400204EB8202002147
:1018C000516001330E2BF6D9119F27BBD4F8043891
:1018D00043F00203C4F80438A36B23F40013A3639A
:1018E000236843F040032360236843F080032360B0
:1018F0000023C4F8003E04F50065D4F80038C4F8AD
:1019000000380C9B012B10D10A9B4BB900212046BB
:10191000FFF7C0FF0DE0A36B43F40013A363E7E7F9
:1019200001212046FFF7B6FF03E003212046FFF721
:10193000B1FF10212046FFF75FFF804608B14FF04E
:1019400001082046FFF780FF08B14FF0010800238F
:101950002B616B61EB610AE0C3B94FF00060C2F824
:10196000000900220A614FF67F328A60013307992D
:10197000994210D904EB431202F51061D2F8000924
:101980000028E9DB0020C2F80009EAE74FF09040A8
:10199000C2F80009E5E700230AE0C3B14FF0904C1C
:1019A000C2F800CB002202614FF67F328260013321
:1019B000994211D904EB431202F53060D2F8006B62
:1019C000002EEADB4FF0000CC2F800CBEAE74FF044
:1019D000006CC2F800CBE5E72B6923F480732B6120
:1019E0000023A3616FF080436361099B1BB9A36966
:1019F00043F01003A361A2690A4B1343A3610D9B3B
:101A00001BB1A36943F00803A361012F04D0404632
:101A1000BDE8F04104B07047A269034B1343A361D2
:101A2000F5E700BF00383C8004000040D0F80838DB
:101A300013F0060305D0062B18BF022B03D102209A
:101A40007047002070470F207047000010B591F8D4
:101A500000C04B78012B21D000F5006ED0F81C3867
:101A60000CF00F040122A24043EA0243C0F81C38E4
:101A700000EB4C10D0F8003B13F4004F0CD1D0F821
:101A8000002B8B68C3F30A03097943EA81431A43A5
:101A9000134B1343C0F8003B002010BDD0F81C28A6
:101AA0000CF00F0E03FA0EF39BB21343C0F81C3870
:101AB00000EB4C10D0F8003913F4004FECD1D0F803
:101AC00000298B68C3F30A03097943EA814343EA97
:101AD0008C531A43024B1343C0F80039DCE700BFB4
:101AE0000080001030B40B784A78012A26D000EB31
:101AF0004313D3F8002B002A52DBD0F83C480A7875
:101B000002F00F024FF0010C0CFA02F224EA02423A
:101B1000C0F83C28D0F81C28097801F00F010CFA15
:101B200001FC22EA0C42C0F81C28D3F8001B234A0F
:101B30000A40C3F8002B002030BC704700EB431371
:101B4000D3F80029002A1EDBD0F83C580A7802F0AE
:101B50000F02012404FA02F292B225EA0202C0F84E
:101B60003C28D0F81C28097801F00F018C40A4B261
:101B700022EA0402C0F81C28D3F80019104A0A40CF
:101B8000C3F80029D7E7D3F8002942F00062C3F870
:101B90000029D3F8002942F08042C3F80029D3E796
:101BA000D3F8002B42F00062C3F8002BD3F8002BCF
:101BB00042F08042C3F8002B9FE700BF0078F3EFAC
:101BC000007833EC10B483B00246002301934878C8
:101BD00001280BD00B7802EB4313D3F8000B00283D
:101BE0002DDB002003B05DF8044B70470B7802EB4F
:101BF0004313D3F80049002C01DB0020F2E7D3F8AF
:101C0000004944F00064C3F800490B7802EB431329
:101C1000D3F8004944F08044C3F80049019B0133E4
:101C20000193019C42F210739C42DBD80B7802EBCB
:101C30004313D3F80039002BF0DB0020D2E7D3F8B0
:101C4000000B40F00060C3F8000B0B7802EB43136D
:101C5000D3F8000B40F08040C3F8000B019B013328
:101C60000193019842F21073984208D80B7802EB66
:101C70004313D3F8003B002BF0DB0020B2E7012038
:101C8000B0E710B59DF8084084B903334FEA930ECE
:101C90004FF0000C08E000EB023303F5805351F8DD
:101CA000044B1C600CF1010CF445F4D3002010BD72
:101CB000F0B583B00C784B78012B2DD000EB441C91
:101CC0000CF530631E69864D35401D611E69854DDA
:101CD00035401D61002C40F0C7800C690CB18C6848
:101CE0000C618C680C621D69C4F312042C431C61E6
:101CF0001C6944F400241C61012A00F0D8800B798F
:101D0000012B00F0DA80DCF8003B43F00443CCF810
:101D1000003B002003B0F0BD0B6973BB00EB441324
:101D2000D3F810696F4D3540C3F81059D3F81059E6
:101D300045F40025C3F81059D3F81069684D3540B3
:101D4000C3F81059012A4DD000EB4414D4F80039DF
:101D500043F00443C4F800390B79012B6BD00B69B5
:101D6000002BD6D0D0F83438097801F00F010122C9
:101D70008A401343C0F83438CBE700EB441303F533
:101D800010631E69564D35401D611E69554D354025
:101D90001D61D4B90E698D68AE4200D90D611D690F
:101DA00045F400251D611D690E69C6F31206354311
:101DB0001D610D79012DC5D11D6925F0C0451D613D
:101DC0001D6945F000551D61BCE71E690D698F68EE
:101DD0003D44013DB5FBF7F5434F07EAC5453543A3
:101DE0001D61E0E7CB691BB100EB4412C2F8143966
:101DF0000B79012B08D000EB4414D4F8003943F0E0
:101E00000443C4F8003984E7D0F8083813F4807F1D
:101E100008D100EB4412D2F8003943F00053C2F865
:101E20000039E8E700EB4412D2F8003943F0805360
:101E3000C2F80039DFE7D0F8083813F4807F0CD1FE
:101E4000D4F8003943F00053C4F8003900920B8AEB
:101E50000A78C968FFF715FF5BE7D4F8003943F04B
:101E60008053C4F80039F1E70C6954B91C698D68D6
:101E7000C5F312052C431C611C6944F400241C6149
:101E80003AE78D682C44013CB4FBF5F4A4B204FBA2
:101E900005F50D621D69144E06EAC4442C431C610D
:101EA0001C690D6AC5F312052C431C6124E7CA683E
:101EB000002A3FF424AF5A6121E7D0F8083813F420
:101EC000807F06D1DCF8003B43F00053CCF8003BA8
:101ED00019E7DCF8003B43F08053CCF8003B12E7F5
:101EE0000000F8FFFFFF07E00000F81F10B5844670
:101EF00008464FEA920E02F00302002305E00CF5BB
:101F00008051096840F8041B01337345F7D37AB157
:101F10000CF5805CDCF800400021CBB2DB0024FA39
:101F200003F300F8013B0131013A92B2002AF4D1E7
:101F300010BD0B784A78012A14D000EB4310D0F87A
:101F4000002B002A06DB2BB1D0F8003B23F08043A6
:101F5000C0F8003BD0F8003B43F40013C0F8003B4E
:101F60000020704700EB4310D0F80029002A06DB60
:101F70002BB1D0F8003923F08043C0F80039D0F8F5
:101F8000003943F40013C0F80039E9E70B784A78C8
:101F9000012A0ED000EB4310D0F8003B23F40013CD
:101FA000C0F8003B0B79023BDBB2012B15D90020B6
:101FB000704700EB4310D0F8003923F40013C0F849
:101FC00000390B79023BDBB2012BF0D8D0F8003995
:101FD00043F08053C0F80039E9E7D0F8003B43F004
:101FE0008053C0F8003BE2E7D0F8003823F4FE63EA
:101FF000C0F80038D0F80038090101F4FE610B4345
:10200000C0F8003800207047D0F8003E23F00303EA
:10201000C0F8003ED0F8043823F00203C0F80438BA
:1020200000207047D0F8003E23F00303C0F8003EC4
:10203000D0F8043843F00203C0F804380020704799
:102040004269806910407047D0F8183800F5006088
:10205000C0691840000C7047D0F8183800F50060CF
:10206000C069184080B2704700EB4111D1F8082BCD
:1020700000F50060406910407047D0F81028D0F893
:10208000343801F00F0C23FA0CF3DB01DBB21343FD
:1020900000EB411000F510608068184070474069FF
:1020A00000F00100704738B50546C36823F0C0430F
:1020B000C360012913D019BBC36843F08043C360D8
:1020C0000024012002F04EFB01342846FFF7E7FF11
:1020D00008B1312CF5D9322C14D0002038BDC3689A
:1020E00043F00053C3600024012002F03BFB0134A5
:1020F0002846FFF7D4FF0128EDD0312CF4D9EAE7C8
:102100000120EBE70120E9E7D0F80029054B134057
:10211000C0F80039D0F8043843F48073C0F80438AC
:102120000020704700F8FFFF10B4046C154B9C4270
:1021300003D9D0F8003B002B16DB0024C0F8104B6D
:10214000D0F8104B44F40024C0F8104BD0F8104BDA
:1021500044F01804C0F8104BD0F8104B44F0C044C1
:10216000C0F8104B012903D000205DF8044B7047E4
:10217000C0F8142BD0F8003B43F08023C0F8003B9C
:10218000F2E700BF0A30544F002800F0398338B519
:102190000446036813F0010F25D0944A136903F035
:1021A0003803926A102B15D0182B0FD06368B3F543
:1021B000803F3FD0002B53D18C4B1A6822F48032E1
:1021C0001A601A6822F480221A6038E002F00302D2
:1021D000022AEBD1854B1B6813F4003F03D06368E0
:1021E000002B00F00F83236813F0020F00F0A18092
:1021F0007E4A1369926A13F038035AD0182B55D0CF
:10220000E368002B00F0DE8078490A6822F01902AA
:1022100013430B6002F0A0FA0546744B1B6813F0E1
:10222000040F40F0AD8002F097FA401B0228F4D969
:102230000320EEE26D4A136843F480331360636851
:102240002BB302F089FA0546684B1B6813F4003F74
:10225000C9D102F081FA401B6428F5D90320D8E2E5
:10226000B3F5A02F09D0614B1A6822F480321A60AE
:102270001A6822F480221A60E1E75C4B1A6842F483
:1022800080221A601A6842F480321A60D7E702F09E
:1022900063FA0546554B1B6813F4003FA3D002F0C8
:1022A0005BFA401B6428F5D90320B2E212F0030F59
:1022B000A6D14E4B1B6813F0040F03D0E368002B2C
:1022C00000F0A282494A136823F01903E1680B4326
:1022D000136002F041FA0546444B1B6813F0040FEB
:1022E00006D102F039FA401B0228F5D9032090E20A
:1022F00002F04CFA41F20303984212D82269402AB4
:1023000007D03A494B6823F47C3343EA02334B60ED
:102310000FE0364A536823F47C3343F400335360B0
:1023200007E0324A536823F0FE43216943EA016320
:102330005360236813F0100F00F088802B4A136954
:1023400003F03803926A082B56D0182B50D0E3695B
:10235000002B00F0B880254A136843F08003136017
:1023600002F0FAF90546214B1B6813F4807F40F018
:10237000888002F0F1F9401B0228F4D9032048E2DA
:1023800002F004FA41F20303984212D82269402A6B
:1023900007D016494B6823F47C3343EA02334B6081
:1023A000C7E7124A536823F47C3343F40033536085
:1023B000BFE70E4A536823F0FE43216943EA0163F5
:1023C0005360B6E7094A136823F00103136002F073
:1023D000C3F90546054B1B6813F0040FA9D002F0A2
:1023E000BBF9401B0228F5D9032012E20044025831
:1023F00002F00302012AAAD1A14B1B6813F4807FCB
:1024000003D0E369802B40F0018202F0BFF941F272
:102410000303984212D8226A202A07D098494B68B1
:1024200023F0F84343EA82634B600FE0944A536819
:1024300023F0F84343F08043536007E0904AD368A9
:1024400023F07C53216A43EA0163D360236813F0CD
:10245000080F60D06369002B49D0894A536F43F05D
:102460000103536702F078F90546854B5B6F13F063
:10247000020F50D102F070F9401B0228F5D9032059
:10248000C7E102F083F941F20303984212D8226AAD
:10249000202A07D07A494B6823F0F84343EA826345
:1024A0004B60D3E7764A536823F0F84343F0804308
:1024B0005360CBE7724AD36823F07C53216A43EA26
:1024C0000163D360C2E76E4A136823F08003136090
:1024D00002F042F905466A4B1B6813F4807FB5D0C1
:1024E00002F03AF9401B0228F5D9032091E1644A31
:1024F000536F23F00103536702F02EF90546604B3A
:102500005B6F13F0020F06D002F026F9401B022881
:10251000F5D903207DE1236813F0200F29D0A369AA
:102520009BB1574A136843F48053136002F014F9C7
:102530000546534B1B6813F4005F1AD102F00CF9E7
:10254000401B0228F5D9032063E14D4A136823F4A8
:102550008053136002F000F90546494B1B6813F4E1
:10256000005F06D002F0F8F8401B0228F5D90320DE
:102570004FE1236813F0040F21D1636A002B00F0B0
:1025800047813F4A126902F03802182A00F0EE80B3
:10259000022B79D03A4A136823F08073136002F05B
:1025A000DBF80446364B1B6813F0007F00F0DC803C
:1025B00002F0D2F8001B0228F4D9032029E1314AA5
:1025C000136843F48073136002F0C6F805462D4B80
:1025D0001B6813F4807F06D102F0BEF8401B64280C
:1025E000F5D9032015E1A368012B0AD00BBB244BBE
:1025F0001A6F22F001021A671A6F22F004021A679A
:1026000004E01F4A136F43F001031367A36833B359
:1026100002F0A2F805461A4B1B6F13F0020FACD163
:1026200002F09AF8401B41F288339842F3D9032014
:10263000EFE0052B09D0124B1A6F22F001021A6746
:102640001A6F22F004021A67E0E70D4B1A6F42F08E
:1026500004021A671A6F42F001021A67D6E702F005
:102660007BF80546064B1B6F13F0020F85D002F076
:1026700073F8401B41F288339842F3D90320C8E035
:102680000044025800480258694A136823F08073D6
:10269000136002F061F80546654B1B6813F0007F7C
:1026A00006D002F059F8401B0228F5D90320B0E00B
:1026B0005F4B996A5F4A0A40A16AE06A41EA0011E9
:1026C0000A439A62226B013AC2F30802616B013934
:1026D000490289B20A43A16B0139090401F4FE01E0
:1026E0000A43E16B0139090601F0FE410A431A630E
:1026F000DA6A22F00102DA62596B4F4A0A40A16C91
:1027000042EAC1025A63DA6A22F00C02216C0A43DF
:10271000DA62DA6A22F00202616C0A43DA62DA6A89
:1027200042F48032DA62DA6A42F40032DA62DA6A59
:1027300042F48022DA62DA6A42F00102DA621A684E
:1027400042F080721A6002F007F80446384B1B68AA
:1027500013F0007F06D101F0FFFF001B0228F5D91E
:10276000032056E0002054E0002052E0304A916AF5
:10277000106B012B4ED001F00303A26A93424BD1A0
:10278000C1F30511E36A994248D1C0F30802236BF3
:10279000013B9A4244D1C0F34622636B013B9A420B
:1027A00040D1C0F30642A36B013B9A423CD1C0F337
:1027B0000660E36B013B984238D11D4B5B6BC3F362
:1027C000CC03A26C9A4201D1002022E0184AD36ABD
:1027D00023F00103D36201F0BFFF054601F0BCFF07
:1027E000A842FBD0124A516B134B0B40A16C43EA39
:1027F000C1035363D36A43F00103D362002008E0AE
:1028000001207047012004E0012002E0012000E0E7
:10281000002038BD0120FCE70120FAE70120F8E79D
:102820000120F6E70120F4E70120F2E70120F0E7BC
:10283000004402580CFCFFFF0700FFFF744B1B69AC
:1028400003F03803102B00F0DE80182B0FD00BB1F3
:10285000704870476E4B1B6813F0200F00F0D58056
:102860006B4B1B68C3F3C1036B48D840704710B46F
:10287000674B9A6A02F003029C6AC4F30510D96A96
:1028800001F001015B6BC3F3CC0301FB03F307EE23
:10289000903AF8EE677A14F47C7F00F09480012A75
:1028A00066D0022A00F09280E2B107EE100AF8EE3C
:1028B000476A9FED5A6A86EE267A554B1B6BC3F327
:1028C000080306EE903AF8EE666A9FED556A67EEE9
:1028D000867A76EEA77AF7EE006A77EEA67A27EE8A
:1028E000277A61E04A4B1B6813F0200F23D0484938
:1028F0000A68C2F3C102484BD34007EE103AF8EE23
:10290000476A07EE100AB8EE476A86EE867A0B6BC6
:10291000C3F3080306EE903AF8EE666A9FED406A4C
:1029200067EE867A76EEA77AF7EE006A77EEA67AF9
:1029300027EE277A38E007EE100AF8EE476A9FED97
:10294000396A86EE267A324B1B6BC3F3080306EE18
:10295000903AF8EE666A9FED326A67EE867A76EE16
:10296000A77AF7EE006A77EEA67A27EE277A1BE0C1
:1029700007EE100AF8EE476A9FED286A86EE267A7F
:10298000234B1B6BC3F3080306EE903AF8EE666A1E
:102990009FED236A67EE867A76EEA77AF7EE006AF5
:1029A00077EEA67A27EE277A194B1B6BC3F34623E3
:1029B000013307EE903AF8EE677AC7EE276AFCEE2D
:1029C000E67A17EE900A5DF8044B704707EE100A9E
:1029D000F8EE476A9FED146A86EE267A0C4B1B6B65
:1029E000C3F3080306EE903AF8EE666A9FED0C6AB0
:1029F00067EE867A76EEA77AF7EE006A77EEA67A29
:102A000027EE277AD0E7094870470348704700BF90
:102A10000044025800093D000090D0030024744A8D
:102A2000000000390024744C0024F44A00127A009B
:102A3000002800F0328170B50D4604469B4B1B68A0
:102A400003F00F038B420BD2984A136823F00F0355
:102A50000B431360136803F00F038B4240F01F8198
:102A6000236813F0040F0CD02269914B9B6903F08B
:102A700070039A4205D98E498B6923F070031A437B
:102A80008A61236813F0080F0CD06269884BDB69F8
:102A900003F070039A4205D98549CB6923F070038E
:102AA0001A43CA61236813F0100F0CD0A269804B3F
:102AB000DB6903F4E0639A4205D97D49CB6923F4CD
:102AC000E0631A43CA61236813F0200F0CD0E26957
:102AD000774B1B6A03F070039A4205D974490B6A5D
:102AE00023F070031A430A62236813F0020F0CD01C
:102AF000E2686F4B9B6903F00F039A4205D96C495A
:102B00008B6923F00F031A438A61236813F0010FC6
:102B100041D0674A936923F47063A1680B439361C2
:102B20006368022B0AD0032B27D0012B2CD0604ADC
:102B3000126812F0040F06D10120ADE0126812F401
:102B4000003F00F0AE805A490A6922F007021343A1
:102B50000B6101F001FE0646554B1B6903F038037B
:102B60006268B3EBC20F16D001F0F6FD801B41F294
:102B700088339842F0D903208EE04D4A126812F053
:102B8000007FE0D1012087E0494A126812F4807F7B
:102B9000D9D1012080E0236813F0020F0CD0E26845
:102BA000434B9B6903F00F039A4205D240498B695E
:102BB00023F00F031A438A613C4B1B6803F00F0399
:102BC000AB420AD9394A136823F00F032B43136031
:102BD000136803F00F03AB4265D1236813F0040FB1
:102BE0000CD02269324B9B6903F070039A4205D2E4
:102BF0002F498B6923F070031A438A61236813F00D
:102C0000080F0CD062692A4BDB6903F070039A420B
:102C100005D22749CB6923F070031A43CA612368A0
:102C200013F0100F0CD0A269214BDB6903F4E063B1
:102C30009A4205D21E49CB6923F4E0631A43CA6164
:102C4000236813F0200F0CD0E269194B1B6A03F0C4
:102C500070039A4205D216490B6A23F070031A4397
:102C60000A62FFF7EBFD12498B69C3F30323114A94
:102C7000D35C03F01F03D8408B6903F00F03D35CD0
:102C800003F01F0320FA03F30B4A13600B4B186089
:102C90000B4B186801F00AFD70BD01207047012040
:102CA000FAE70120F8E70120F6E700BF0020005214
:102CB000004402583CC40008F8000020FC0000203A
:102CC0006C00002008B5FFF7B9FD0B4A9369C3F308
:102CD00003230A49CB5C03F01F0320FA03F3926934
:102CE00002F00F02885C00F01F0023FA00F0044A93
:102CF0001060044A136008BD004402583CC4000838
:102D0000F8000020FC00002008B5FFF7DBFF054BB2
:102D1000DB69C3F30213044AD35C03F01F03D840FA
:102D200008BD00BF004402583CC4000808B5FFF7C6
:102D3000C9FF054BDB69C3F30223044AD35C03F0EC
:102D40001F03D84008BD00BF004402583CC400081F
:102D5000404B9B6A03F00303032B79D070B5054603
:102D60000E463C4A136823F08063136001F0F4FCC4
:102D70000446384B1B6813F0006F06D001F0ECFCE2
:102D8000031B022BF5D9032070BD324B9A6A22F443
:102D90007C32296842EA01329A626A68013AC2F3D7
:102DA0000802A9680139490289B20A43E968013970
:102DB000090401F4FE010A4329690139090601F0F9
:102DC000FE410A439A63DA6A22F0C00269690A4343
:102DD000DA62DA6A22F02002A9690A43DA62DA6A60
:102DE00022F01002DA62D96B1B4A0A40E96942EA12
:102DF000C102DA63DA6A42F01002DA62C6B91A4630
:102E0000DB6A43F40023D362124A136843F0806301
:102E1000136001F0A1FC04460E4B1B6813F0006F19
:102E200014D101F099FC001B0228F5D90320ABE76F
:102E3000012E05D0074AD36A43F40013D362E3E7B7
:102E4000044AD36A43F48013D362DDE700209BE792
:102E500001207047004402580700FFFF404B9B6A67
:102E600003F00303032B79D070B505460E463C4AA8
:102E7000136823F08053136001F06EFC0446384B56
:102E80001B6813F0005F06D001F066FC031B022BE9
:102E9000F5D9032070BD324B9A6A22F07C72296802
:102EA00042EA01529A626A68013AC2F30802A968CA
:102EB0000139490289B20A43E9680139090401F478
:102EC000FE010A4329690139090601F0FE410A435E
:102ED0001A64DA6A22F4406269690A43DA62DA6AD9
:102EE00022F40072A9690A43DA62DA6A22F4807273
:102EF000DA62596C1B4A0A40E96942EAC1025A6423
:102F0000DA6A42F48072DA62C6B91A46DB6A43F4BE
:102F10008003D362124A136843F08053136001F0B8
:102F20001BFC04460E4B1B6813F0005F14D101F02C
:102F300013FC001B0228F5D90320ABE7012E05D0B6
:102F4000074AD36A43F08073D362E3E7044AD36A43
:102F500043F40003D362DDE700209BE701207047C4
:102F6000004402580700FFFFF8B50446036813F059
:102F7000006F30D0836EB3F5001F26D00ED8EBB1B2
:102F8000B3F5801F07D102210830FFF7E1FE0546A7
:102F900045B12E4621E0012635461EE0B3F5401F1F
:102FA00009D10025984A136D23F44013A16E0B43F9
:102FB0001365002611E0012635460EE0924AD36AD9
:102FC00043F40033D3620025ECE702212830FFF7F9
:102FD00045FF0546DCE700263546236813F4807F6D
:102FE00014D0A36D042B32D8DFE803F003232A08A2
:102FF0000800854AD36A43F40033D36255BB824A42
:10300000136D23F00703A16D0B431365236813F4BD
:10301000007F31D0E36D802B4CD020D8002B43D0E3
:10302000402B19D1002104F10800FFF791FE05465D
:103030001AE0002104F10800FFF78AFE0546DDE7EB
:10304000002104F12800FFF709FF0546D6E7012615
:103050003546DBE72E46D9E7012635460CE0C02B86
:1030600002D0B3F5807F1CD15DBB674A136D23F49A
:10307000E073E16D0B431365236813F4806F46D052
:10308000D4F8A830B3F5800F39D01FD88BB3B3F57F
:10309000001F18D1002104F10800FFF759FE054672
:1030A0001AE001263546E7E7574AD36A43F400336E
:1030B000D362D9E7002104F12800FFF7CFFE0546CF
:1030C000D2E72E46D8E70126354620E0B3F5C00FFB
:1030D00002D0B3F5000F09D1C5B94B4A936D23F463
:1030E0006003D4F8A8100B43936510E00126354621
:1030F0000DE0454AD36A43F40033D362ECE7002184
:1031000004F12800FFF7AAFE0546E5E72E462368EE
:1031100013F4006F24D0D4F8AC30B3F1007F42D068
:103120000ED8002B39D0B3F1807F06D1002104F1F5
:103130000800FFF70DFE054608E0012635460FE0C2
:10314000B3F1407F02D0B3F1806F23D1002D31D194
:103150002D4A936D23F0E063D4F8AC100B439365D4
:10316000236813F0007F2ED0E36C202B40D026D8AC
:1031700033B1102B20D1244AD36A43F40033D362F5
:10318000002D3CD1204AD36C23F03003E16C0B437B
:10319000D36418E001263546E2E71B4AD36A43F4BC
:1031A0000033D362D2E7002104F12800FFF756FE76
:1031B0000546CBE72E46D3E70126354603E0302B04
:1031C000DED001263546236813F4805F2DD0236EB0
:1031D000B3F5005F4FD019D8002B46D0B3F5805F10
:1031E0000FD1002104F10800FFF7B2FD054613E0FE
:1031F000022104F10800FFF7ABFD0546C0E72E46AB
:10320000E1E70126354610E000440258B3F5405F7F
:1032100002D0B3F5804F25D1002D33D1774A136DFD
:1032200023F4E043216E0B431365236813F4005F1E
:1032300038D0636EB3F5003F53D028D843B1B3F50F
:10324000803F21D1012104F10800FFF781FD0546EF
:10325000002D4DD1694A136D23F4E023616E0B43B9
:1032600013651FE001263546DFE7644AD36A43F45D
:103270000033D362D0E7002104F12800FFF7EEFD10
:103280000546C9E72E46D0E7012635460AE0B3F5E4
:10329000802FDDD0B3F5A02FDAD0B3F5403FD7D0E3
:1032A00001263546236813F4804F31D0D4F8B0306E
:1032B000B3F1005F45D020D843B1B3F1805F19D19D
:1032C000012104F10800FFF743FD0546002D3FD121
:1032D0004A4A936D23F0E043D4F8B0100B43936552
:1032E00016E0012104F12800FFF7B8FD0546AFE71D
:1032F0002E46D7E7012635460AE0B3F1804FE5D0E8
:10330000B3F1A04FE2D0B3F1405FDFD001263546E4
:10331000236813F4004F09D0236FB3F1805F19D0F5
:10332000B3F1005F24D0D3B101263546236813F0F2
:10333000807F33D0A36C032B5BD8DFE803F0272218
:103340005327012104F12800FFF788FD0546BDE75A
:103350002E46DDE7294AD36A43F40033D36275B9B8
:10336000264A136D23F04053216F0B431365DDE7AD
:10337000012104F10800FFF7EBFC0546EFE72E46BC
:10338000D4E71E4AD36A43F40033D362A5BB1B4A79
:10339000D36C23F00303A16C0B43D364236813F4B1
:1033A000800F2DD1236813F0010F00F0A580E36F8B
:1033B000282B00F29F80DFE803F08D9D9D9D9D9D51
:1033C0009D9D879D9D9D9D9D9D9D969D9D9D9D9D4A
:1033D0009D9D8D9D9D9D9D9D9D9D8D9D9D9D9D9D3D
:1033E0009D9D8D00022104F10800FFF7B1FC054608
:1033F000CCE701263546D1E72E46CFE700440258F8
:10340000914A136843F48073136001F0A5F90746ED
:103410008D4B1B6813F4807F05D101F09DF9C01B13
:103420006428F5D90325002D4AD1884B1B6FD4F8A9
:10343000B420534013F4407F0CD0844B1A6F22F415
:103440004072196F41F480311967196F21F480318E
:1034500019671A67D4F8B430B3F5807F15D08DBBE7
:10346000D4F8B43003F44072B2F5407F1ED0774AEE
:10347000136923F47C53136174490B6FD4F8B4209F
:10348000C2F30B0213430B678CE701F065F90746A3
:103490006E4B1B6F13F0020FE1D101F05DF9C01B01
:1034A00041F288339842F3D90325D8E76748026987
:1034B00022F47C52664901EA131313430361DBE7EC
:1034C0002E466FE72E466DE7012104F10800FFF755
:1034D0003FFC0546E5B95D4A536D23F03803E16FC3
:1034E0000B43536508E0012104F12800FFF7B6FC07
:1034F0000546EFE701263546236813F0020F17D083
:10350000A36F052B28D8DFE803F00B05200B0B0B6E
:103510002E46F1E7012104F10800FFF719FC0546EA
:10352000EDB94A4A536D23F00703A16F0B4353656E
:10353000236813F0040F23D0D4F89430052B45D81A
:10354000DFE803F0150F3D151515012104F12800E2
:10355000FFF784FC0546E3E701263546E8E72E46FB
:10356000E6E7012104F10800FFF7F2FB054685BB01
:10357000364A936D23F00703D4F894100B439365F8
:10358000236813F0200F34D0D4F89030B3F1005FEB
:103590004ED023D843B1B3F1805F1CD1002104F198
:1035A0000800FFF7D5FB0546002D48D1274A536D8B
:1035B00023F0E043D4F890100B43536519E0012148
:1035C00004F12800FFF74AFC0546D0E701263546FE
:1035D000D6E72E46D4E7012635460AE0B3F1804F00
:1035E000E2D0B3F1A04FDFD0B3F1405FDCD00126D1
:1035F0003546236813F0400F37D0D4F89C30B3F52C
:10360000006F53D026D843B1B3F5806F19D1002194
:1036100004F10800FFF79CFB0546002D4DD10B4A35
:10362000936D23F4E053D4F89C100B4393651CE096
:10363000022104F12800FFF711FC0546B4E72E46ED
:10364000D7E70126354610E00048025800440258EA
:10365000CFFFFF00B3F5805FDFD0B3F5A05FDCD014
:10366000B3F5406FD9D001263546236813F0800F9B
:1036700033D0D4F8A030B3F5804F00F0A38021D828
:1036800043B1B3F5005F1AD1002104F10800FFF740
:103690005FFB0546002D40F09C80814A936D23F42A
:1036A0006043D4F8A0100B43936516E0022104F1A7
:1036B0002800FFF7D3FB0546AFE72E46D5E70126E6
:1036C00035460AE0B3F5004FE4D0B3F5204FE1D022
:1036D000B3F5C04FDED001263546236813F0080F3E
:1036E0000CD0D4F88430B3F5805F74D06C4A536D3D
:1036F00023F44053D4F884100B435365236813F02C
:10370000100F0CD0D4F89830B3F5807F6CD0644A99
:10371000936D23F44073D4F898100B43936523689A
:1037200013F4002F0BD0D4F8A430B3F5803F74D03D
:10373000B3F5003F67D0002B5FD0012635462368E4
:1037400013F4802F0CD0D4F88830B3F5001F7CD050
:10375000B3F5401F6FD0B3F5801F67D00126354603
:10376000236813F4803F08D0236D002B76D0B3F587
:10377000803F00F0818001263546236813F0005F0A
:1037800040F08380236813F4003F00F08E80D4F86B
:103790008030B3F5807F00F0EC8040F28380B3F599
:1037A000007F03D0B3F5407F40F0E180002D40F072
:1037B000E6803B4A536D23F44073D4F880100B43EA
:1037C000536572E0022104F12800FFF747FB05462C
:1037D00060E72E4681E7022104F12800FFF73EFB57
:1037E000002883D0012681E7022104F12800FFF799
:1037F00035FB00288BD0012689E7002104F1080061
:10380000FFF7A6FA05467DB9254A936D23F44033A8
:10381000D4F8A4100B43936591E7022104F128002A
:10382000FFF71CFB0546EEE72E4688E71C4AD36AE5
:1038300043F40033D3627DB9194A536D23F4401326
:10384000D4F888100B4353658AE7012104F128005E
:10385000FFF704FB0546EEE72E4681E7104AD36AE0
:1038600043F40033D36275B90D4AD36C23F480332B
:10387000216D0B43D36480E7022104F10800FFF7B8
:1038800067FA0546EFE72E4677E7022104F12800A4
:10389000FFF7E4FA00283FF475AF012672E700BF96
:1038A00000440258002B81D00126236813F4801FA6
:1038B00006D04F4A136D23F00043616F0B4313652D
:1038C000236813F0805F07D0494A136923F48043CB
:1038D000D4F8B8100B431361236813F4001F06D00B
:1038E000434A136D23F08073E16E0B431365236825
:1038F00013F0804F09D03E4B1A6922F400421A613E
:103900001A69D4F8BC100A431A612368002B06DA3E
:10391000374AD36C23F04053616D0B43D364236863
:1039200013F4000F07D0324A536D23F44003D4F848
:103930008C100B435365636813F0010F21D163684A
:1039400013F0020F26D1636813F0040F2BD16368C4
:1039500013F0080F30D1636813F0100F35D163688E
:1039600013F0200F3AD106B101263046F8BD0126EA
:103970009BE71F4AD36A43F40033D36216E72E460F
:1039800093E7002104F10800FFF7E2F90028D6D000
:103990000646D4E7012104F10800FFF7D9F9002811
:1039A000D1D00646CFE7022104F10800FFF7D0F995
:1039B0000028CCD00646CAE7002104F12800FFF712
:1039C0004DFA0028C7D00646C5E7012104F12800BA
:1039D000FFF744FA0028C2D00646C0E7022104F1EE
:1039E0002800FFF73BFA0028BDD00126BDE700BF45
:1039F0000044025808B5FFF765F9054B1B6AC3F38D
:103A00000213044AD35C03F01F03D84008BD00BF73
:103A1000004402583CC4000810B4784B9A6A9C6A6F
:103A2000C4F3053CD96AC1F30011DB6BC3F3CC03CB
:103A300001FB03F314F47C3F00F0DB8002F003028F
:103A400007EE903AF8EE677A012A66D0022A00F073
:103A5000B380E2B107EE10CAF8EE476A9FED686ADC
:103A600086EE267A654B9B6BC3F3080306EE903A0D
:103A7000F8EE666A9FED636A67EE867A76EEA77A5D
:103A8000F7EE006A77EEA67A27EE277A61E05B4BC5
:103A90001B6813F0200F23D058490A68C2F3C102F3
:103AA000594BD34007EE103AF8EE476A07EE10CABA
:103AB000B8EE476A86EE867A8B6BC3F3080306EE90
:103AC000903AF8EE666A9FED4F6A67EE867A76EE78
:103AD000A77AF7EE006A77EEA67A27EE277A38E023
:103AE00007EE10CAF8EE476A9FED486A86EE267A1E
:103AF000424B9B6BC3F3080306EE903AF8EE666AFE
:103B00009FED406A67EE867A76EEA77AF7EE006A56
:103B100077EEA67A27EE277A1BE007EE10CAF8EEBA
:103B2000476A9FED376A86EE267A344B9B6BC3F368
:103B3000080306EE903AF8EE666A9FED326A67EE89
:103B4000867A76EEA77AF7EE006A77EEA67A27EE07
:103B5000277A2A4A936BC3F3462307EE903AF8EE8E
:103B6000677AF7EE006A77EEA67A87EE276ABCEEF0
:103B7000C66A80ED006A936BC3F3064307EE903A82
:103B8000F8EE677A77EEA67A87EE276ABCEEC66A09
:103B900080ED016A936BC3F3066307EE903AF8EE8B
:103BA000677A77EEA67AC7EE276AFCEEE66AC0ED82
:103BB000026A5DF8044B704707EE10CAF8EE476AD8
:103BC0009FED136A86EE267A0C4B9B6BC3F30803BA
:103BD00006EE903AF8EE666A9FED0A6A67EE867A1C
:103BE00076EEA77AF7EE006A77EEA67A27EE277AC6
:103BF000AFE70023036043608360DAE700440258C4
:103C00000024744A000000390090D0030024744C52
:103C10000024F44A10B4784B9A6A9C6AC4F3055C99
:103C2000D96AC1F300215B6CC3F3CC0301FB03F33E
:103C300014F07C7F00F0DB8002F0030207EE903A84
:103C4000F8EE677A012A66D0022A00F0B380E2B16A
:103C500007EE10CAF8EE476A9FED686A86EE267A8C
:103C6000654B1B6CC3F3080306EE903AF8EE666AE8
:103C70009FED636A67EE867A76EEA77AF7EE006AC2
:103C800077EEA67A27EE277A61E05B4B1B6813F08C
:103C9000200F23D058490A68C2F3C102594BD340C0
:103CA00007EE103AF8EE476A07EE10CAB8EE476A18
:103CB00086EE867A0B6CC3F3080306EE903AF8EEB4
:103CC000666A9FED4F6A67EE867A76EEA77AF7EE20
:103CD000006A77EEA67A27EE277A38E007EE10CA58
:103CE000F8EE476A9FED486A86EE267A424B1B6CD7
:103CF000C3F3080306EE903AF8EE666A9FED406A59
:103D000067EE867A76EEA77AF7EE006A77EEA67A05
:103D100027EE277A1BE007EE10CAF8EE476A9FED00
:103D2000376A86EE267A344B1B6CC3F3080306EE23
:103D3000903AF8EE666A9FED326A67EE867A76EE22
:103D4000A77AF7EE006A77EEA67A27EE277A2A4A54
:103D5000136CC3F3462307EE903AF8EE677AF7EE5A
:103D6000006A77EEA67A87EE276ABCEEC66A80ED17
:103D7000006A136CC3F3064307EE903AF8EE677AD5
:103D800077EEA67A87EE276ABCEEC66A80ED016AF6
:103D9000136CC3F3066307EE903AF8EE677A77EE9A
:103DA000A67AC7EE276AFCEEE66AC0ED026A5DF805
:103DB000044B704707EE10CAF8EE476A9FED136A8E
:103DC00086EE267A0C4B1B6CC3F3080306EE903A82
:103DD000F8EE666A9FED0A6A67EE867A76EEA77A53
:103DE000F7EE006A77EEA67A27EE277AAFE7002390
:103DF000036043608360DAE7004402580024744A99
:103E0000000000390090D0030024744C0024F44AD0
:103E1000F0B583B000236BE085685E000324B440F6
:103E200025EA0405CC68B4402C438460456825EA43
:103E30000C054C68C4F300149C402C43446069E0BA
:103E4000DD08083550F8254003F0070C4FEA8C0CCC
:103E50004FF00F0E0EFA0CFE24EA0E0E0C6904FA57
:103E60000CF444EA0E0440F825406BE0092400E01D
:103E7000002404FA0EF42C430CF1020C694D45F8B1
:103E80002C404FF0B0442568D44325EA02064F6821
:103E900017F4801F01D042EA05064FF0B0452E60AE
:103EA0006D6804EA05064F6817F4001F01D042EA66
:103EB00005064FF0B0456E60D5F8845004EA05065B
:103EC0004F6817F4003F01D042EA05064FF0B045B5
:103ED000C5F88460D5F880502C404E6816F4803FB9
:103EE00001D042EA05044FF0B042C2F880400133ED
:103EF0000A6832FA03F400F092804FF0010C0CFAD9
:103F000003FC1CEA0202F2D04C6804F00304013CFA
:103F1000012C81D94C6804F00304032C0CD0C46834
:103F20005D004FF0030C0CFA05FC24EA0C0C8C68C5
:103F3000AC4044EA0C04C4604C6804F00304022C56
:103F40003FF47EAF04684FEA430E4FF0030C0CFAC7
:103F50000EFC24EA0C0C4C6804F0030404FA0EF482
:103F600044EA0C0404604C6814F4403FBFD02E4C6B
:103F7000D4F8F45045F00205C4F8F450D4F8F440F5
:103F800004F002040194019C4FEA930C0CF1020529
:103F9000244C54F8255003F0030E4FEA8E0E0F24E4
:103FA00004FA0EF425EA0405204CA0423FF460AF69
:103FB00004F58064A04222D004F58064A04220D0A1
:103FC00004F58064A0421ED004F58064A0421CD099
:103FD00004F58064A0421AD004F58064A04218D091
:103FE00004F58064A04216D004F58064A04214D089
:103FF00004F58064A0423FF439AF0A2439E7012474
:1040000037E7022435E7032433E7042431E70524A6
:104010002FE706242DE707242BE7082429E703B020
:10402000F0BD00BF000400580044025800000258D0
:104030000AB181617047090481617047436901EAEF
:10404000030221EA030141EA024181617047000055
:104050002030054B53F82020044B9A4201D0012018
:1040600070470020704700BF0064025800030080C2
:1040700041F44071014B43F820107047006402582E
:1040800070B405686E691F4C3440C3F310031C43C1
:104090006C6105686B69C3F31303039C013C43EA3D
:1040A00004536B6103681F245C600368DA61036872
:1040B000996101F07F41002918BFB1F1005F15D16E
:1040C00001688B6A43F480338B6202F07F42002ADE
:1040D00018BFB2F1005F0FD10268936A43F4003356
:1040E0009362C26D03685A6270BC704701688B6A44
:1040F00023F480338B62E8E70268936A23F4003389
:104100009362EEE70000FEFFC368016902680B439B
:10411000D360436982691343C2691343026A13433C
:10412000426A1343C26A1343026B1343826A013A21
:1041300043EA8243816802680B4313614368B3F129
:10414000804F1BD0036800225A61436B93421BDBF4
:1041500002689BB21362836B002B20DB01680A6A42
:1041600042EA03430B624368B3F1804F24D00268F4
:10417000DBB29362036800225A62704702681369D7
:1041800043F040431361DDE70268536943F4802341
:104190005361436B5B4202689BB21362DBE70268C8
:1041A000536943F400235361836B5A4201680B6ADD
:1041B00043EA02430B62D6E7036800229A62D9E71A
:1041C00038B5044600F0C8FA44B30546002384F825
:1041D0003C30022384F83D302268D36823F0010389
:1041E000D3602368DB6813F0010F0BD000F0B4FA42
:1041F000431B052BF5D94023A366032384F83D30E8
:1042000001200AE02046FFF77FFF0020E0652066DE
:104210006066A066012384F83D3038BD0120FCE7CC
:1042200068B3034690F83C0001282AD0012083F8A7
:104230003C0093F83D00C0B2012804D001200022C8
:1042400083F83C20704730B41C68256915F0804F16
:1042500009D121631868426351B919680A6922F0CB
:1042600000420A610020002283F83C2030BC7047E5
:1042700019680A6942F000420A610020F3E7012050
:1042800070470220704700284FD030B583B00446F5
:1042900090F83C0001284AD0012084F83C0094F8B2
:1042A0003D00C0B2012805D0002384F83C30022034
:1042B00003B030BD022084F83D000020A0662568D0
:1042C000E86820F00100E860069800902046FFF7BB
:1042D000D7FE2268D36843F00603D360E36C23B1B2
:1042E0002268D36843F01003D360236D23B12268A2
:1042F000D36843F00803D360A36C23B12268D3686A
:1043000043F02003D3602268D36843F00103D360F5
:104310006368B3F1804F01D00020C9E72268D368F9
:1043200043F48033D3600020C2E7012070470220AD
:10433000BEE790B190F83D30DBB2022B03D0802372
:10434000836601207047042380F83D300268D368FB
:1043500023F00103D3600020704701207047000064
:1043600030B583B000230193674B1D68674BA3FBF7
:1043700005350168664B0B44C3F38413012202FA2E
:1043800003F34FF0A44212681A4200F0A5800446DD
:10439000AD0A0B6813F0010F2FD0CB6813F0020F9A
:1043A0002BD0CB6823F00203CB600268936813F034
:1043B000800F40F09380816E41F00101816613F41B
:1043C000007F03D0A16E41F00401A16613F4807F49
:1043D00003D0A16E41F00801A16613F4806F03D0F1
:1043E000A16E41F01001A16613F4006F03D0A36E1B
:1043F00043F02003A3660123536023681A6812F078
:10440000100F09D0DA6812F0200F05D010225A6080
:10441000A36C0BB12046984723681A6812F0080F66
:1044200009D0DA6812F0100F05D008225A60E36C48
:104430000BB12046984723681A6812F0040F09D080
:10444000DA6812F0080F05D004225A60236D0BB110
:104450002046984723681A6812F0020F19D0DA68CC
:1044600012F0040F15D0DA6822F03E02DA6094F8F8
:104470003D30DBB2042B36D0236802225A60002381
:1044800084F83C30012384F83D30636C0BB1204646
:104490009847A36E03B3042384F83D302268D368A1
:1044A00023F00103D360019B01330193AB4204D895
:1044B0002368DB6813F0010FF5D1002384F83C304A
:1044C0002368DB6813F0010F19D0032384F83D3013
:1044D000636D0BB12046984703B030BD816E41F04B
:1044E000020181666BE7002384F83C30012384F8E5
:1044F0003D30A36D002BEFD020469847ECE7012319
:1045000084F83D30E4E700BFFC000020B5814E1B7D
:10451000C0FFFFAD38B50446224BDB6803F007034C
:10452000062B07D01F4BDB6803F03F03834236D0D6
:10453000012038BD1B4AD36823F03F030343D360F7
:1045400000F00AF90546174B5B6813F4005F07D1CA
:1045500000F002F9431BB3F57A7FF4D90120E8E7B4
:104560002E2C18BF1E2C08D02D2C14BF0023012385
:104570001D2C02D00BB90020DBE700F0EDF804465B
:10458000084BDB6813F4803F07D100F0E5F8001B0F
:10459000B0F57A7FF4D90120CBE70020C9E70020ED
:1045A000C7E700BF00480258024AD36843F080734F
:1045B000D360704700480258002807DB00F01F0254
:1045C000400901239340024A42F82030704700BF5F
:1045D00000E100E0002804DB0901C9B2044B1954D2
:1045E000704700F00F000901C9B2024B195470471F
:1045F00000E400E014ED00E000B500F00700C0F1B9
:10460000070CBCF1040F28BF4FF0040C031D062B50
:104610000FD9C31E4FF0FF3E0EFA0CF021EA000145
:1046200099400EFA03FE22EA0E0241EA02005DF80A
:1046300004FB0023EEE700000649CB6823F4E063A7
:104640001B041B0C000200F4E0600343024A1A43FF
:10465000CA60704700ED00E00000FA0510B504469E
:10466000054BD868C0F30220FFF7C6FF014620467D
:10467000FFF7B0FF10BD00BF00ED00E008B5FFF789
:104680009BFF08BD0138B0F1807F0BD24FF0E023D3
:104690005861054AF02182F8231000209861072212
:1046A0001A6170470120704700ED00E0104B1B7845
:1046B0000BB90120704710B504464FF47A70B0FB77
:1046C000F3F30C4A1068B0FBF3F0FFF7DBFF68B9B7
:1046D0000F2C01D901200AE0002221464FF0FF30C3
:1046E000FFF7BCFF044B1C60002000E0012010BD60
:1046F00068000020FC0000206C00002010B50320A2
:10470000FFF79AFFFEF79AF80F498B69C3F303236B
:104710000E4AD35C03F01F03D8408B6903F00F03EC
:10472000D35C03F01F0320FA03F3094A1360094B1B
:1047300018600020FFF7BAFF10B10124204610BD19
:10474000044604F043FAF9E7004402583CC4000868
:10475000F8000020FC000020014B1868704700BFE3
:10476000F41F002038B50446FFF7F6FF0546B4F104
:10477000FF3F02D0044B1B781C44FFF7EDFF401BAA
:10478000A042FAD338BD00BF68000020014B186872
:10479000000C70470010005C034A536823F4600368
:1047A00003435360704700BF0004005803689A69D0
:1047B00012F0020F01D000229A6203689A6912F087
:1047C000010F03D19A6942F001029A61704710B457
:1047D000019CC1F3090141EA02411943214321F03F
:1047E000004102685368640D04F4806444F07F74EF
:1047F00044F4583444F47F7444F0030423EA04037B
:104800000B4353605DF8044B70472DE9F0410446BB
:1048100003689E6916F010067ED00D469046102261
:10482000DA61002637462368986910F0200F32D1EC
:104830008FBBB5F1FF3FF6D0FFF78EFFA0EB08006E
:10484000A84201D8002DEED121684A6802F48042C6
:1048500094F84230DBB2886910F4004F04D0203B5A
:1048600018BF012302B973B923689B6913F0200FA5
:10487000D9D1FFF771FFA0EB08001928F4D946F051
:1048800020060127CFE74B6843F480434B60FFF7D6
:1048900063FF8046E8E70FB92022DA6146F004069C
:1048A00001252268936913F4807F05D046F0010644
:1048B0004FF48071D161012513F4806F06D046F06A
:1048C000080622684FF48061D161012513F4007F4E
:1048D00024D046F0020623684FF40072DA61012505
:1048E0002046FFF763FF2268536823F0FF7323F429
:1048F0008B3323F4FF7323F001035360636C334362
:104900006364202384F84130002384F8423084F823
:1049100040302846BDE8F0810025C2E7002DF8D0E0
:10492000DEE770B504460D46164623689B6913F012
:10493000020F22D1324629462046FFF766FFF0B922
:10494000B5F1FF3FF1D0FFF707FF801BA84201D868
:10495000002DEAD123689B6913F0020FE5D1636C47
:1049600043F020036364202384F84130002384F85B
:10497000423084F84030012000E0002070BD01206A
:10498000FCE72DE9F04105460F46164698462C688F
:10499000A46937EA04040CBF01240024B44222D1E4
:1049A000B8F1FF3FF3D0FFF7D7FE069BC01A404592
:1049B00002D8B8F1000FEAD12B689B6937EA0303EC
:1049C0000CBF01230023B342E1D16B6C43F0200301
:1049D0006B64202385F84130002385F8423085F848
:1049E0004030012000E00020BDE8F08170B50446B1
:1049F0000D46164604E023689B6913F0200F12D081
:104A000023689B6913F0200F1BD1324629462046AC
:104A1000FFF7FBFEB8B9FFF79FFE801BA842EAD85C
:104A2000002DEDD1E7E7636C43F02003636420239E
:104A300084F84130002384F8423084F8403001206B
:104A400000E0002070BD0120FCE770B504460D4673
:104A500016462DE09A6912F0040F02D0228D002A2A
:104A60004CD19A6912F0100F1AD01022DA61042387
:104A7000636423682022DA6121684B6823F0FF73A6
:104A800023F48B3323F4FF7323F001034B6084F88A
:104A90004120002384F8423084F8403001212DE089
:104AA00000236364E5E723689B6913F0040F18D0C3
:104AB00023689B6913F0040F1FD132462946204614
:104AC000FFF7A3FE0146D8B923689A6912F0200FB8
:104AD000C0D1FFF741FE801BA842E4D8002DE7D1EA
:104AE000E1E7636C43F020036364202384F84130E2
:104AF000002384F84030012100E00021084670BD09
:104B00000121FBE7002857D010B5044690F841304A
:104B1000002B41D0242384F841302268136823F00D
:104B2000010313606368226823F0706313612268D5
:104B3000936823F400439360E368012B31D0A368AA
:104B4000226843F404439360E368022B2FD0226869
:104B500051681A4B0B4353602268D36823F4004317
:104B6000D360236962691343A169226843EA012380
:104B7000D360E369216A22680B43136022681368DB
:104B800043F00103136000206064202384F8413067
:104B9000206384F8420010BD80F8403003F03AFFF3
:104BA000B8E7A368226843F400439360CCE7236826
:104BB0004FF400625A60CAE701207047008000028B
:104BC0002DE9F04782B00F460A9E90F84110C9B215
:104BD000202940F0A38004469046994690F8403042
:104BE000012B00F09F804FF0010A80F840A0FFF7F2
:104BF000B3FD05460090192352464FF4004120466C
:104C0000FFF7BFFE002840F08F80212384F8413059
:104C1000102384F8423000236364C4F82480A4F88D
:104C20002A906363638D9BB2FF2B0AD9FF222285F2
:104C3000414B00934FF0807339462046FFF7C7FD84
:104C400018E0628D92B222853B4B00934FF00073C7
:104C5000D2B239462046FFF7BAFD0BE0628D92B220
:104C60002285002300934FF00073D2B239462046CC
:104C7000FFF7ADFD638D9BB2002B33D02A46314642
:104C80002046FFF74EFE002850D1626A2368127852
:104C90009A62636A01336362638D9BB2013B9BB28C
:104CA0006385238D013B9BB22385628D92B2002ADE
:104CB000E0D0002BDED10095334600228021204633
:104CC000FFF75FFEA0BB638D9BB2FF2BC6D9FF220F
:104CD0002285002300934FF0807339462046FFF76A
:104CE00076FDC7E72A4631462046FFF77FFE08BB20
:104CF00023682022DA6121684B6823F0FF7323F4D4
:104D00008B3323F4FF7323F001034B6084F84120BD
:104D1000002384F8423084F8403000E0022002B0E2
:104D2000BDE8F0870220FAE70120F8E70120F6E766
:104D30000120F4E70120F2E7002000802DE9F04790
:104D400082B00F460A9E90F84110C9B2202940F067
:104D5000A28004469046994690F84030012B00F01E
:104D60009E804FF0010A80F840A0FFF7F5FC054651
:104D70000090192352464FF400412046FFF701FEF0
:104D8000002840F08E80222384F84130102384F8DC
:104D9000423000236364C4F82480A4F82A9063633B
:104DA000638D9BB2FF2B0AD9FF222285414B0093D2
:104DB0004FF0807339462046FFF709FD18E0628DF9
:104DC00092B222853B4B00934FF00073D2B239462A
:104DD0002046FFF7FCFC0BE0628D92B22285002397
:104DE00000934FF00073D2B239462046FFF7EFFC34
:104DF000638D9BB2002B32D02A4631462046FFF706
:104E000024FE00284FD123685A6A636A1A70636AC5
:104E100001336362228D013A92B22285638D9BB287
:104E2000013B9BB26385638D9BB2002BE0D0002ACF
:104E3000DED10095334680212046FFF7A2FDA0BBBE
:104E4000638D9BB2FF2BC7D9FF22228500230093DD
:104E50004FF0807339462046FFF7B9FCC8E72A4671
:104E600031462046FFF7C2FD08BB23682022DA61E5
:104E700021684B6823F0FF7323F48B3323F4FF7313
:104E800023F001034B6084F84120002384F8423072
:104E900084F8403000E0022002B0BDE8F087022034
:104EA000FAE70120F8E70120F6E70120F4E7012006
:104EB000F2E700BF00240080034690F84120D2B200
:104EC000202A23D190F84020012A21D0012280F805
:104ED0004020242280F841200068026822F001026C
:104EE00002601868026822F4805202601868026842
:104EF0001143016019680A6842F001020A60202229
:104F000083F84120002083F840007047022070475A
:104F100002207047034690F84120D2B2202A21D1C6
:104F200090F84020012A1FD0012280F8402024223E
:104F300080F841200068026822F0010202601868CF
:104F4000026822F4706242EA0122026019680A686B
:104F500042F001020A60202283F84120002083F8F9
:104F600040007047022070470220704730B48B68C1
:104F70000A6813430A7943EAC2630A7B43EAC253CD
:104F80004A7B43EA82538A7B43EA4253CA7B43EA21
:104F900002530A7C002A40F0B0804FF400221343F1
:104FA0004A7C002A40F0AB804FF4003213438A7CE5
:104FB00043EA02434A6913438A6913430A7F43EA77
:104FC00002334A7F43EAC2238A7F002A40F0998055
:104FD0004FF480621343CA7F43EA422391F82020B2
:104FE000002A40F090804FF4807213434A6A1343C2
:104FF00091F8282043EA0213CA6A1343046822681E
:1050000022F07F4222F47B0222F4FE4222F07C0254
:1050100013432360CA6B91F838301B0643EA42639E
:1050200091F8302043EA824391F8312043EA424329
:1050300091F83220002A68D14FF4803213434A6B32
:1050400013430468626822F07C5222F4EF2222F4B7
:10505000FF6222F007021343636091F840204B6C1B
:1050600043EA02220468E5682B4B2B401343E360BC
:1050700091F854200B6D43EA420391F84C20002A2A
:1050800045D1802213438A6C43EA02430468226FAD
:1050900022F0F2021204120C1343236791F85620F7
:1050A00091F8553042EA43020468D4F8903023F076
:1050B00003031343C4F890300268D2F8003D23F094
:1050C00072038C6D2343C2F8003DCB6D91F86020D4
:1050D000FAB94022134391F8612043EA021391F890
:1050E000622043EAC2030168D1F8302D22F07B022E
:1050F0001343C1F8303D30BC704700224FE7002217
:1051000054E7002266E700226FE7002296E70022BC
:10511000B8E70022DEE700BFF0FEFFFF10B4026830
:1051200002F580521468234B23400C68234313601C
:105130000A798B6843EA02330A7B43EAC232036886
:1051400003F5805CDCF804401B4B23401343CCF890
:1051500004304A7B0B6A43EA024C026802F5805233
:10516000D2F80041154B234043EA0C03C2F800314A
:105170000B690A7D43EA02134A7F43EA023203685D
:1051800003F5805CDCF804410D4B23401343CCF85D
:1051900004310B7F896941EAC371026802F58052CC
:1051A000D2F80801074B03400B43C2F808315DF801
:1051B000044B7047FD87FFFFFE2FFFFF00C0FEFF7F
:1051C000EFEFC0FFFFFFC07F70B5A2B0064601251C
:1051D0008DF83350002412948DF841408DF84340EF
:1051E0008DF828508DF856508DF832508DF84C407F
:1051F0008DF884504FF400530F938DF85C40189451
:105200008DF885408DF886404FF4C36316938DF872
:1052100030400B948DF835508DF836408DF8404075
:105220001D941B9414948DF864408DF87A408DF889
:105230004250202320938DF844508DF855404FF074
:10524000405309934FF480430E938DF8314002236D
:105250001F938DF878408DF879408DF854408DF883
:1052600034501A948DF8705009A9FFF77FFE8DF81D
:105270000450029500948DF81C408DF80D408DF877
:105280000C404FF4001306938DF8144004938DF8EE
:105290001D404FF40673089369463046FFF73EFF02
:1052A00022B070BD10B4002210E0C46802EB4203CB
:1052B0004FEAC30C04EBC303002144F80C105960FF
:1052C0009960D960911D40F821300132032AECD950
:1052D00000238362036803F580530322C3F82C2163
:1052E000C268036803F58053C3F81421C2680368D9
:1052F00003F58053C3F820215DF8044B704710B4C8
:10530000002113E0046901EB41034FEAC30C04EBF5
:10531000C303002244F80C205A609A60DA601A61D4
:105320005A6101F1120240F8223001310329E9D912
:105330000023C36503668366C3668365036803F55C
:1053400080530322C3F830210269036803F58053B8
:10535000C3F81C21036903F14802036803F5805375
:10536000C3F828215DF8044B7047000038B50546A6
:105370000368D3F8004224F47064FDF7A3FC114BDA
:105380000344114A934205D244F400742B68C3F8D5
:10539000004238BD0D4B03440D4A934202D844F4F9
:1053A0004074F3E70B4B03440B4A9342EED30B4B91
:1053B00003440B4A934202D844F48074E6E744F471
:1053C0008064E3E700D3CEFEC0E1E40040F1E9FDF4
:1053D0003F787D0100796CFC005A6202001F0AFAD6
:1053E0007FF0FA02002800F0998030B583B00446BF
:1053F000D0F884309BB34A4BD3F8F42042F0020239
:10540000C3F8F420D3F8F43003F002030193019BB6
:10541000237A53BB0020FFF7BFF9424B5B68236838
:1054200003F580531A6842F001021A60FFF794F9FD
:105430000546236803F580531B6813F0010F19D04C
:10544000FFF78AF9401BB0F5FA7FF2D90423C4F8BC
:105450008830E023C4F88430012003B030BD23231A
:10546000C0F8843003F02CF8C5E74FF40000FFF7D4
:1054700093F9D2E72046FFF779FFFDF723FC2A4B8B
:10548000A3FB00239B0C2268013BC2F8DC302046C2
:10549000FFF79AFE226802F58052D2F8003123F419
:1054A000E01343F40023C2F80031626912F0030FE5
:1054B00006D00120C4F88800E023C4F88430CCE78B
:1054C000216801F58051D1F80801184B034043EAE7
:1054D0004203C1F808312046FFF7E4FE2046FFF7FB
:1054E0000EFF636859791B79226843EA0123C2F8E9
:1054F00000336268D17893781B0443EA01635178E2
:1055000043EA0123117822680B43C2F804330020D8
:10551000C4F888001023C4F884309EE70120704747
:10552000004402580004005883DE1B430180FFFF43
:10553000036C0022DA621A68136843F400331360C4
:1055400070472DE9F84305460F4616469946DDF8A3
:1055500020802C68A4683C4214BF4FF0010C4FF02F
:10556000000CB44514D0B8F1FF3FF2D0FFF7F4F8C7
:10557000A0EB0900404502D8B8F1000FE9D104239F
:1055800085F841306B6C43F001036B64012000E04F
:105590000020BDE8F883000070B582B004460068C2
:1055A000026994F84030DBB2012B00F086800132B2
:1055B000012384F8403094F84150EDB29D4206D06A
:1055C000002384F840300225284602B070BD002335
:1055D0006364002969D0E262122384F84130032316
:1055E000C360E36AA36261622268536923F0406387
:1055F0005361E36B324A5A64E36B324A5A65E36B98
:1056000000229A65E36B1A6810692F4B03401361FF
:10561000E26BD36903BB12681069A3F541730340C1
:1056200043F00203136100262268A36A0120009060
:105630002032E06BFEF727FE60BB002384F8403089
:105640002268136843F4803313602268136843F0C0
:10565000040313603546B7E7102B07D0202B0FD07B
:10566000636C43F0040363642E46DDE7126810693F
:10567000A3F54573034043F4817313610026D3E718
:1056800010680369114A1A4040F202231343036170
:105690000026C9E7636C43F004036364012384F8C4
:1056A0004130002384F840308EE7636C43F00803F8
:1056B0006364002384F8403086E7022584E700BF56
:1056C00031550008E5590008F3F3FFFFFCFCFFFF2C
:1056D000704708B5006C00238363C36290F84130C3
:1056E000DBB2082B0DD103680222DA60026813686E
:1056F00043F4003313600268136843F0020313603D
:1057000008BD012380F84130FFF7E2FFF8E770475A
:1057100070477047704770477047000010B50446E7
:1057200003689A68196812F0040F3FD011F4802FB3
:105730003CD090F84120D2B2122A12D090F84120E9
:10574000D2B2222A1FD02046FFF7E4FF10BD626AC2
:10575000127883F82020626A01326262E26A013ABA
:10576000E2622268916811F0040FECD0E16A00292E
:10577000EDD1136823F480231360E4E7136823F466
:1057800080231360DFE72268916811F0040FDAD0FC
:10579000A16B0029F2D0226B93F820101170226BBC
:1057A00001322263A26B013AA263ECE712F0020F0E
:1057B00076D011F4003F73D00222DA6022681368B9
:1057C00023F4E023136094F84130DBB2122B1DD098
:1057D00094F84130DBB2222B2ED094F84130DBB26A
:1057E000022B52D094F84130DBB2082BAED12268A4
:1057F000536923F040635361012384F84130636CA3
:10580000002B49D12046FFF782FF9FE723681A68E3
:1058100012F0040F09D01A6822F004021A60E36B38
:105820001A68D36823F00103D360012384F8413060
:10583000204602F0C5FF89E721680B6813F0040FCA
:1058400010D00B6823F004030B60E36B1A68D36875
:1058500023F00103D360012384F841302046FFF791
:1058600058FF73E723689B6813F47C5FF3D0A36B46
:10587000002BF0D0236B91F820201A70236B01339A
:105880002363A36B013BA363ECE7012384F841305E
:105890002046FFF73DFF59E72046FFF719FF55E780
:1058A00012F0080F14D011F4002F11D00822DA6082
:1058B00023681A6812F4800F06D01A6822F41022A6
:1058C0001A60012384F841302046FFF724FF3DE7AA
:1058D00012F0010F31D011F4803F2ED00122DA6096
:1058E0002268136823F470231360636C43F002038F
:1058F000636423681A6812F0040F17D01A6822F044
:1059000004021A60E36B144A9A65E06BFEF711FD1E
:1059100000283FF41BAF636C43F00403636401236E
:1059200084F841302046FFF7D3FE0FE7012384F8C7
:1059300041302046FFF7CCFE08E712F0100F3FF48D
:1059400005AF11F4801F3FF401AF1022DA6020464A
:10595000FFF7E2FEFAE600BFD356000890F84130A8
:1059600013F0020F3AD010B50446002380F84030FF
:10597000082380F841300268136823F4F813136099
:1059800003681A6812F0040F11D19A6812F0200F00
:1059900020D00222DA600268136843F400331360F7
:1059A0000268136843F002031360002010BD1A68F8
:1059B00022F004021A60C36B094A9A65C06BFEF7B5
:1059C000B8FC0028F1D0012384F841302046FFF7CD
:1059D0009EFEEAE7012380F84130E6E700207047A9
:1059E000D356000808B5006C00238363C362436C80
:1059F00043F0040343640268136823F00403136054
:105A0000FFF7ACFF08BD81647047000070B582B03D
:105A10000446FEF7A1FE002C45D0064694F841301E
:105A2000002B37D025682A6822F4F852A168013982
:105A300042EA01222A60A36C00933346002220210F
:105A40002046FFF77EFD18BB21680B68174A1A40F5
:105A50006568E36843EA0563E5692B43256A2B43E0
:105A60001A430A6021684A68114B1340256962692C
:105A700042EA0542A5692A4313434B602268136832
:105A800043F00103136000236364012384F8413071
:105A900002B070BD204602F0E7FD41F28831204699
:105AA000FFF7B1FFBEE70120F2E700BF2FFFFF00C5
:105AB000FEF8E0FF10B4036A046A24F001040462F3
:105AC000846924F0F00C4CEA021223F00A030B4321
:105AD000826103625DF8044B704710B4036A23F0DF
